{
  "_format": "hh-sol-artifact-1",
  "contractName": "AlternativePayments",
  "sourceName": "contracts/AlternativePayments.sol",
  "abi": [
    {
      "inputs": [],
      "stateMutability": "nonpayable",
      "type": "constructor"
    },
    {
      "anonymous": false,
      "inputs": [
        {
          "indexed": false,
          "internalType": "uint256",
          "name": "id",
          "type": "uint256"
        },
        {
          "indexed": false,
          "internalType": "string",
          "name": "phoneNumber",
          "type": "string"
        },
        {
          "indexed": false,
          "internalType": "uint256",
          "name": "amount",
          "type": "uint256"
        },
        {
          "indexed": false,
          "internalType": "string",
          "name": "provider",
          "type": "string"
        }
      ],
      "name": "MobileMoneyPaymentCreated",
      "type": "event"
    },
    {
      "anonymous": false,
      "inputs": [
        {
          "indexed": false,
          "internalType": "uint256",
          "name": "id",
          "type": "uint256"
        }
      ],
      "name": "MobileMoneyPaymentProcessed",
      "type": "event"
    },
    {
      "anonymous": false,
      "inputs": [
        {
          "indexed": false,
          "internalType": "uint256",
          "name": "id",
          "type": "uint256"
        },
        {
          "indexed": false,
          "internalType": "string",
          "name": "code",
          "type": "string"
        },
        {
          "indexed": false,
          "internalType": "uint256",
          "name": "amount",
          "type": "uint256"
        },
        {
          "indexed": false,
          "internalType": "string",
          "name": "recipientId",
          "type": "string"
        }
      ],
      "name": "VoucherCreated",
      "type": "event"
    },
    {
      "anonymous": false,
      "inputs": [
        {
          "indexed": false,
          "internalType": "uint256",
          "name": "id",
          "type": "uint256"
        },
        {
          "indexed": false,
          "internalType": "string",
          "name": "code",
          "type": "string"
        }
      ],
      "name": "VoucherRedeemed",
      "type": "event"
    },
    {
      "inputs": [],
      "name": "admin",
      "outputs": [
        {
          "internalType": "address",
          "name": "",
          "type": "address"
        }
      ],
      "stateMutability": "view",
      "type": "function"
    },
    {
      "inputs": [
        {
          "internalType": "string",
          "name": "phoneNumber",
          "type": "string"
        },
        {
          "internalType": "uint256",
          "name": "amount",
          "type": "uint256"
        },
        {
          "internalType": "string",
          "name": "provider",
          "type": "string"
        }
      ],
      "name": "createMobileMoneyPayment",
      "outputs": [],
      "stateMutability": "nonpayable",
      "type": "function"
    },
    {
      "inputs": [
        {
          "internalType": "string",
          "name": "code",
          "type": "string"
        },
        {
          "internalType": "uint256",
          "name": "amount",
          "type": "uint256"
        },
        {
          "internalType": "string",
          "name": "recipientId",
          "type": "string"
        },
        {
          "internalType": "uint256",
          "name": "expiryDays",
          "type": "uint256"
        }
      ],
      "name": "createVoucher",
      "outputs": [],
      "stateMutability": "nonpayable",
      "type": "function"
    },
    {
      "inputs": [
        {
          "internalType": "uint256",
          "name": "id",
          "type": "uint256"
        }
      ],
      "name": "getMobileMoneyPayment",
      "outputs": [
        {
          "components": [
            {
              "internalType": "uint256",
              "name": "id",
              "type": "uint256"
            },
            {
              "internalType": "string",
              "name": "phoneNumber",
              "type": "string"
            },
            {
              "internalType": "uint256",
              "name": "amount",
              "type": "uint256"
            },
            {
              "internalType": "address",
              "name": "donor",
              "type": "address"
            },
            {
              "internalType": "bool",
              "name": "processed",
              "type": "bool"
            },
            {
              "internalType": "string",
              "name": "provider",
              "type": "string"
            }
          ],
          "internalType": "struct AlternativePayments.MobileMoneyPayment",
          "name": "",
          "type": "tuple"
        }
      ],
      "stateMutability": "view",
      "type": "function"
    },
    {
      "inputs": [
        {
          "internalType": "uint256",
          "name": "id",
          "type": "uint256"
        }
      ],
      "name": "getVoucher",
      "outputs": [
        {
          "components": [
            {
              "internalType": "uint256",
              "name": "id",
              "type": "uint256"
            },
            {
              "internalType": "string",
              "name": "code",
              "type": "string"
            },
            {
              "internalType": "uint256",
              "name": "amount",
              "type": "uint256"
            },
            {
              "internalType": "address",
              "name": "donor",
              "type": "address"
            },
            {
              "internalType": "string",
              "name": "recipientId",
              "type": "string"
            },
            {
              "internalType": "bool",
              "name": "redeemed",
              "type": "bool"
            },
            {
              "internalType": "uint256",
              "name": "expiryDate",
              "type": "uint256"
            }
          ],
          "internalType": "struct AlternativePayments.Voucher",
          "name": "",
          "type": "tuple"
        }
      ],
      "stateMutability": "view",
      "type": "function"
    },
    {
      "inputs": [
        {
          "internalType": "uint256",
          "name": "",
          "type": "uint256"
        }
      ],
      "name": "mobileMoneyPayments",
      "outputs": [
        {
          "internalType": "uint256",
          "name": "id",
          "type": "uint256"
        },
        {
          "internalType": "string",
          "name": "phoneNumber",
          "type": "string"
        },
        {
          "internalType": "uint256",
          "name": "amount",
          "type": "uint256"
        },
        {
          "internalType": "address",
          "name": "donor",
          "type": "address"
        },
        {
          "internalType": "bool",
          "name": "processed",
          "type": "bool"
        },
        {
          "internalType": "string",
          "name": "provider",
          "type": "string"
        }
      ],
      "stateMutability": "view",
      "type": "function"
    },
    {
      "inputs": [],
      "name": "nextPaymentId",
      "outputs": [
        {
          "internalType": "uint256",
          "name": "",
          "type": "uint256"
        }
      ],
      "stateMutability": "view",
      "type": "function"
    },
    {
      "inputs": [],
      "name": "nextVoucherId",
      "outputs": [
        {
          "internalType": "uint256",
          "name": "",
          "type": "uint256"
        }
      ],
      "stateMutability": "view",
      "type": "function"
    },
    {
      "inputs": [
        {
          "internalType": "uint256",
          "name": "id",
          "type": "uint256"
        }
      ],
      "name": "processMobileMoneyPayment",
      "outputs": [],
      "stateMutability": "nonpayable",
      "type": "function"
    },
    {
      "inputs": [
        {
          "internalType": "string",
          "name": "code",
          "type": "string"
        }
      ],
      "name": "redeemVoucher",
      "outputs": [],
      "stateMutability": "nonpayable",
      "type": "function"
    },
    {
      "inputs": [
        {
          "internalType": "string",
          "name": "",
          "type": "string"
        }
      ],
      "name": "usedVoucherCodes",
      "outputs": [
        {
          "internalType": "bool",
          "name": "",
          "type": "bool"
        }
      ],
      "stateMutability": "view",
      "type": "function"
    },
    {
      "inputs": [
        {
          "internalType": "uint256",
          "name": "",
          "type": "uint256"
        }
      ],
      "name": "vouchers",
      "outputs": [
        {
          "internalType": "uint256",
          "name": "id",
          "type": "uint256"
        },
        {
          "internalType": "string",
          "name": "code",
          "type": "string"
        },
        {
          "internalType": "uint256",
          "name": "amount",
          "type": "uint256"
        },
        {
          "internalType": "address",
          "name": "donor",
          "type": "address"
        },
        {
          "internalType": "string",
          "name": "recipientId",
          "type": "string"
        },
        {
          "internalType": "bool",
          "name": "redeemed",
          "type": "bool"
        },
        {
          "internalType": "uint256",
          "name": "expiryDate",
          "type": "uint256"
        }
      ],
      "stateMutability": "view",
      "type": "function"
    }
  ],
  "bytecode": "0x6080604052348015600f57600080fd5b5033600560006101000a81548173ffffffffffffffffffffffffffffffffffffffff021916908373ffffffffffffffffffffffffffffffffffffffff160217905550612270806100606000396000f3fe608060405234801561001057600080fd5b50600436106100b45760003560e01c8063c5d9618d11610071578063c5d9618d146101be578063ce8c8467146101da578063f05f89fd146101f6578063f3b9faf714610212578063f851a44014610242578063fe7c7bcf14610260576100b4565b80630b451b2f146100b95780630cfa2fd8146100d557806334679825146101055780633e97b43f146101355780639b22b9201461016b578063be97852514610189575b600080fd5b6100d360048036038101906100ce91906113b4565b61027e565b005b6100ef60048036038101906100ea9190611433565b61044b565b6040516100fc91906115ed565b60405180910390f35b61011f600480360381019061011a9190611433565b61062a565b60405161012c919061169f565b60405180910390f35b61014f600480360381019061014a9190611433565b610800565b6040516101629796959493929190611738565b60405180910390f35b61017361097f565b60405161018091906117b5565b60405180910390f35b6101a3600480360381019061019e9190611433565b610985565b6040516101b5969594939291906117d0565b60405180910390f35b6101d860048036038101906101d39190611433565b610afe565b005b6101f460048036038101906101ef919061183f565b610c5a565b005b610210600480360381019061020b91906118ca565b610e4d565b005b61022c600480360381019061022791906113b4565b611155565b6040516102399190611969565b60405180910390f35b61024a61118b565b6040516102579190611984565b60405180910390f35b6102686111b1565b60405161027591906117b5565b60405180910390f35b60005b60035481101561040c5781805190602001206000808381526020019081526020016000206001016040516102b59190611aa2565b6040518091039020036103ff5760008082815260200190815260200160002060050160009054906101000a900460ff1615610325576040517f08c379a000000000000000000000000000000000000000000000000000000000815260040161031c90611b05565b60405180910390fd5b6000808281526020019081526020016000206006015442111561037d576040517f08c379a000000000000000000000000000000000000000000000000000000000815260040161037490611b71565b60405180910390fd5b600160008083815260200190815260200160002060050160006101000a81548160ff0219169083151502179055507f4088554bc2ab860c5cdad021822db4d7c992e0e0fc91cb3ed0cb0630d4b7e0c760008083815260200190815260200160002060000154836040516103f1929190611b91565b60405180910390a150610448565b8080600101915050610281565b506040517f08c379a000000000000000000000000000000000000000000000000000000000815260040161043f90611c0d565b60405180910390fd5b50565b6104536111b7565b6000808381526020019081526020016000206040518060e00160405290816000820154815260200160018201805461048a906119ce565b80601f01602080910402602001604051908101604052809291908181526020018280546104b6906119ce565b80156105035780601f106104d857610100808354040283529160200191610503565b820191906000526020600020905b8154815290600101906020018083116104e657829003601f168201915b50505050508152602001600282015481526020016003820160009054906101000a900473ffffffffffffffffffffffffffffffffffffffff1673ffffffffffffffffffffffffffffffffffffffff1673ffffffffffffffffffffffffffffffffffffffff16815260200160048201805461057c906119ce565b80601f01602080910402602001604051908101604052809291908181526020018280546105a8906119ce565b80156105f55780601f106105ca576101008083540402835291602001916105f5565b820191906000526020600020905b8154815290600101906020018083116105d857829003601f168201915b505050505081526020016005820160009054906101000a900460ff161515151581526020016006820154815250509050919050565b61063261120c565b600160008381526020019081526020016000206040518060c00160405290816000820154815260200160018201805461066a906119ce565b80601f0160208091040260200160405190810160405280929190818152602001828054610696906119ce565b80156106e35780601f106106b8576101008083540402835291602001916106e3565b820191906000526020600020905b8154815290600101906020018083116106c657829003601f168201915b50505050508152602001600282015481526020016003820160009054906101000a900473ffffffffffffffffffffffffffffffffffffffff1673ffffffffffffffffffffffffffffffffffffffff1673ffffffffffffffffffffffffffffffffffffffff1681526020016003820160149054906101000a900460ff16151515158152602001600482018054610777906119ce565b80601f01602080910402602001604051908101604052809291908181526020018280546107a3906119ce565b80156107f05780601f106107c5576101008083540402835291602001916107f0565b820191906000526020600020905b8154815290600101906020018083116107d357829003601f168201915b5050505050815250509050919050565b6000602052806000526040600020600091509050806000015490806001018054610829906119ce565b80601f0160208091040260200160405190810160405280929190818152602001828054610855906119ce565b80156108a25780601f10610877576101008083540402835291602001916108a2565b820191906000526020600020905b81548152906001019060200180831161088557829003601f168201915b5050505050908060020154908060030160009054906101000a900473ffffffffffffffffffffffffffffffffffffffff16908060040180546108e3906119ce565b80601f016020809104026020016040519081016040528092919081815260200182805461090f906119ce565b801561095c5780601f106109315761010080835404028352916020019161095c565b820191906000526020600020905b81548152906001019060200180831161093f57829003601f168201915b5050505050908060050160009054906101000a900460ff16908060060154905087565b60045481565b60016020528060005260406000206000915090508060000154908060010180546109ae906119ce565b80601f01602080910402602001604051908101604052809291908181526020018280546109da906119ce565b8015610a275780601f106109fc57610100808354040283529160200191610a27565b820191906000526020600020905b815481529060010190602001808311610a0a57829003601f168201915b5050505050908060020154908060030160009054906101000a900473ffffffffffffffffffffffffffffffffffffffff16908060030160149054906101000a900460ff1690806004018054610a7b906119ce565b80601f0160208091040260200160405190810160405280929190818152602001828054610aa7906119ce565b8015610af45780601f10610ac957610100808354040283529160200191610af4565b820191906000526020600020905b815481529060010190602001808311610ad757829003601f168201915b5050505050905086565b600560009054906101000a900473ffffffffffffffffffffffffffffffffffffffff1673ffffffffffffffffffffffffffffffffffffffff163373ffffffffffffffffffffffffffffffffffffffff1614610b8e576040517f08c379a0000000000000000000000000000000000000000000000000000000008152600401610b8590611c9f565b60405180910390fd5b6001600082815260200190815260200160002060030160149054906101000a900460ff1615610bf2576040517f08c379a0000000000000000000000000000000000000000000000000000000008152600401610be990611d0b565b60405180910390fd5b600180600083815260200190815260200160002060030160146101000a81548160ff0219169083151502179055507f5e6b9168f52a0cb728b09a49574e3711ec1c3f97258ca4610491a2ae5b53496c81604051610c4f91906117b5565b60405180910390a150565b600560009054906101000a900473ffffffffffffffffffffffffffffffffffffffff1673ffffffffffffffffffffffffffffffffffffffff163373ffffffffffffffffffffffffffffffffffffffff1614610cea576040517f08c379a0000000000000000000000000000000000000000000000000000000008152600401610ce190611c9f565b60405180910390fd5b6040518060c0016040528060045481526020018481526020018381526020013373ffffffffffffffffffffffffffffffffffffffff16815260200160001515815260200182815250600160006004548152602001908152602001600020600082015181600001556020820151816001019081610d669190611ed7565b506040820151816002015560608201518160030160006101000a81548173ffffffffffffffffffffffffffffffffffffffff021916908373ffffffffffffffffffffffffffffffffffffffff16021790555060808201518160030160146101000a81548160ff02191690831515021790555060a0820151816004019081610ded9190611ed7565b509050507ffece71b09c29ed462c9a1b3ee1111ece6cb1228c8a528f01123bab927bed30bb600454848484604051610e289493929190611fa9565b60405180910390a160046000815480929190610e439061202b565b9190505550505050565b600560009054906101000a900473ffffffffffffffffffffffffffffffffffffffff1673ffffffffffffffffffffffffffffffffffffffff163373ffffffffffffffffffffffffffffffffffffffff1614610edd576040517f08c379a0000000000000000000000000000000000000000000000000000000008152600401610ed490611c9f565b60405180910390fd5b600284604051610eed91906120af565b908152602001604051809103902060009054906101000a900460ff1615610f49576040517f08c379a0000000000000000000000000000000000000000000000000000000008152600401610f4090612112565b60405180910390fd5b60008111610f8c576040517f08c379a0000000000000000000000000000000000000000000000000000000008152600401610f83906121a4565b60405180910390fd5b60006201518082610f9d91906121c4565b42610fa89190612206565b90506040518060e0016040528060035481526020018681526020018581526020013373ffffffffffffffffffffffffffffffffffffffff16815260200184815260200160001515815260200182815250600080600354815260200190815260200160002060008201518160000155602082015181600101908161102b9190611ed7565b506040820151816002015560608201518160030160006101000a81548173ffffffffffffffffffffffffffffffffffffffff021916908373ffffffffffffffffffffffffffffffffffffffff16021790555060808201518160040190816110929190611ed7565b5060a08201518160050160006101000a81548160ff02191690831515021790555060c0820151816006015590505060016002866040516110d291906120af565b908152602001604051809103902060006101000a81548160ff0219169083151502179055507ffe5bdf5b71bbc3a4730fad09f5ef86c82f2e5ae359a85756a4f658c7308f11e060035486868660405161112e9493929190611fa9565b60405180910390a1600360008154809291906111499061202b565b91905055505050505050565b6002818051602081018201805184825260208301602085012081835280955050505050506000915054906101000a900460ff1681565b600560009054906101000a900473ffffffffffffffffffffffffffffffffffffffff1681565b60035481565b6040518060e00160405280600081526020016060815260200160008152602001600073ffffffffffffffffffffffffffffffffffffffff16815260200160608152602001600015158152602001600081525090565b6040518060c00160405280600081526020016060815260200160008152602001600073ffffffffffffffffffffffffffffffffffffffff168152602001600015158152602001606081525090565b6000604051905090565b600080fd5b600080fd5b600080fd5b600080fd5b6000601f19601f8301169050919050565b7f4e487b7100000000000000000000000000000000000000000000000000000000600052604160045260246000fd5b6112c182611278565b810181811067ffffffffffffffff821117156112e0576112df611289565b5b80604052505050565b60006112f361125a565b90506112ff82826112b8565b919050565b600067ffffffffffffffff82111561131f5761131e611289565b5b61132882611278565b9050602081019050919050565b82818337600083830152505050565b600061135761135284611304565b6112e9565b90508281526020810184848401111561137357611372611273565b5b61137e848285611335565b509392505050565b600082601f83011261139b5761139a61126e565b5b81356113ab848260208601611344565b91505092915050565b6000602082840312156113ca576113c9611264565b5b600082013567ffffffffffffffff8111156113e8576113e7611269565b5b6113f484828501611386565b91505092915050565b6000819050919050565b611410816113fd565b811461141b57600080fd5b50565b60008135905061142d81611407565b92915050565b60006020828403121561144957611448611264565b5b60006114578482850161141e565b91505092915050565b611469816113fd565b82525050565b600081519050919050565b600082825260208201905092915050565b60005b838110156114a957808201518184015260208101905061148e565b60008484015250505050565b60006114c08261146f565b6114ca818561147a565b93506114da81856020860161148b565b6114e381611278565b840191505092915050565b600073ffffffffffffffffffffffffffffffffffffffff82169050919050565b6000611519826114ee565b9050919050565b6115298161150e565b82525050565b60008115159050919050565b6115448161152f565b82525050565b600060e0830160008301516115626000860182611460565b506020830151848203602086015261157a82826114b5565b915050604083015161158f6040860182611460565b5060608301516115a26060860182611520565b50608083015184820360808601526115ba82826114b5565b91505060a08301516115cf60a086018261153b565b5060c08301516115e260c0860182611460565b508091505092915050565b60006020820190508181036000830152611607818461154a565b905092915050565b600060c0830160008301516116276000860182611460565b506020830151848203602086015261163f82826114b5565b91505060408301516116546040860182611460565b5060608301516116676060860182611520565b50608083015161167a608086018261153b565b5060a083015184820360a086015261169282826114b5565b9150508091505092915050565b600060208201905081810360008301526116b9818461160f565b905092915050565b6116ca816113fd565b82525050565b600082825260208201905092915050565b60006116ec8261146f565b6116f681856116d0565b935061170681856020860161148b565b61170f81611278565b840191505092915050565b6117238161150e565b82525050565b6117328161152f565b82525050565b600060e08201905061174d600083018a6116c1565b818103602083015261175f81896116e1565b905061176e60408301886116c1565b61177b606083018761171a565b818103608083015261178d81866116e1565b905061179c60a0830185611729565b6117a960c08301846116c1565b98975050505050505050565b60006020820190506117ca60008301846116c1565b92915050565b600060c0820190506117e560008301896116c1565b81810360208301526117f781886116e1565b905061180660408301876116c1565b611813606083018661171a565b6118206080830185611729565b81810360a083015261183281846116e1565b9050979650505050505050565b60008060006060848603121561185857611857611264565b5b600084013567ffffffffffffffff81111561187657611875611269565b5b61188286828701611386565b93505060206118938682870161141e565b925050604084013567ffffffffffffffff8111156118b4576118b3611269565b5b6118c086828701611386565b9150509250925092565b600080600080608085870312156118e4576118e3611264565b5b600085013567ffffffffffffffff81111561190257611901611269565b5b61190e87828801611386565b945050602061191f8782880161141e565b935050604085013567ffffffffffffffff8111156119405761193f611269565b5b61194c87828801611386565b925050606061195d8782880161141e565b91505092959194509250565b600060208201905061197e6000830184611729565b92915050565b6000602082019050611999600083018461171a565b92915050565b7f4e487b7100000000000000000000000000000000000000000000000000000000600052602260045260246000fd5b600060028204905060018216806119e657607f821691505b6020821081036119f9576119f861199f565b5b50919050565b600081905092915050565b60008190508160005260206000209050919050565b60008154611a2c816119ce565b611a3681866119ff565b94506001821660008114611a515760018114611a6657611a99565b60ff1983168652811515820286019350611a99565b611a6f85611a0a565b60005b83811015611a9157815481890152600182019150602081019050611a72565b838801955050505b50505092915050565b6000611aae8284611a1f565b915081905092915050565b7f566f756368657220616c72656164792072656465656d65640000000000000000600082015250565b6000611aef6018836116d0565b9150611afa82611ab9565b602082019050919050565b60006020820190508181036000830152611b1e81611ae2565b9050919050565b7f566f756368657220657870697265640000000000000000000000000000000000600082015250565b6000611b5b600f836116d0565b9150611b6682611b25565b602082019050919050565b60006020820190508181036000830152611b8a81611b4e565b9050919050565b6000604082019050611ba660008301856116c1565b8181036020830152611bb881846116e1565b90509392505050565b7f566f7563686572206e6f7420666f756e64000000000000000000000000000000600082015250565b6000611bf76011836116d0565b9150611c0282611bc1565b602082019050919050565b60006020820190508181036000830152611c2681611bea565b9050919050565b7f4f6e6c792061646d696e2063616e20706572666f726d2074686973206163746960008201527f6f6e000000000000000000000000000000000000000000000000000000000000602082015250565b6000611c896022836116d0565b9150611c9482611c2d565b604082019050919050565b60006020820190508181036000830152611cb881611c7c565b9050919050565b7f5061796d656e7420616c72656164792070726f63657373656400000000000000600082015250565b6000611cf56019836116d0565b9150611d0082611cbf565b602082019050919050565b60006020820190508181036000830152611d2481611ce8565b9050919050565b60008190508160005260206000209050919050565b60006020601f8301049050919050565b600082821b905092915050565b600060088302611d8d7fffffffffffffffffffffffffffffffffffffffffffffffffffffffffffffffff82611d50565b611d978683611d50565b95508019841693508086168417925050509392505050565b6000819050919050565b6000611dd4611dcf611dca846113fd565b611daf565b6113fd565b9050919050565b6000819050919050565b611dee83611db9565b611e02611dfa82611ddb565b848454611d5d565b825550505050565b600090565b611e17611e0a565b611e22818484611de5565b505050565b5b81811015611e4657611e3b600082611e0f565b600181019050611e28565b5050565b601f821115611e8b57611e5c81611d2b565b611e6584611d40565b81016020851015611e74578190505b611e88611e8085611d40565b830182611e27565b50505b505050565b600082821c905092915050565b6000611eae60001984600802611e90565b1980831691505092915050565b6000611ec78383611e9d565b9150826002028217905092915050565b611ee08261146f565b67ffffffffffffffff811115611ef957611ef8611289565b5b611f0382546119ce565b611f0e828285611e4a565b600060209050601f831160018114611f415760008415611f2f578287015190505b611f398582611ebb565b865550611fa1565b601f198416611f4f86611d2b565b60005b82811015611f7757848901518255600182019150602085019450602081019050611f52565b86831015611f945784890151611f90601f891682611e9d565b8355505b6001600288020188555050505b505050505050565b6000608082019050611fbe60008301876116c1565b8181036020830152611fd081866116e1565b9050611fdf60408301856116c1565b8181036060830152611ff181846116e1565b905095945050505050565b7f4e487b7100000000000000000000000000000000000000000000000000000000600052601160045260246000fd5b6000612036826113fd565b91507fffffffffffffffffffffffffffffffffffffffffffffffffffffffffffffffff820361206857612067611ffc565b5b600182019050919050565b600081905092915050565b60006120898261146f565b6120938185612073565b93506120a381856020860161148b565b80840191505092915050565b60006120bb828461207e565b915081905092915050565b7f566f756368657220636f646520616c7265616479206578697374730000000000600082015250565b60006120fc601b836116d0565b9150612107826120c6565b602082019050919050565b6000602082019050818103600083015261212b816120ef565b9050919050565b7f4578706972792064617973206d7573742062652067726561746572207468616e60008201527f2030000000000000000000000000000000000000000000000000000000000000602082015250565b600061218e6022836116d0565b915061219982612132565b604082019050919050565b600060208201905081810360008301526121bd81612181565b9050919050565b60006121cf826113fd565b91506121da836113fd565b92508282026121e8816113fd565b915082820484148315176121ff576121fe611ffc565b5b5092915050565b6000612211826113fd565b915061221c836113fd565b925082820190508082111561223457612233611ffc565b5b9291505056fea2646970667358221220a739baedc2fc82d7f7e34e88cbc8f6144db3ebf6b9646f3fd9619048f5f2f62564736f6c634300081c0033",
  "linkReferences": {},
  "deployedLinkReferences": {}
}