{
  "_format": "hh-sol-artifact-1",
  "contractName": "DonorTracking",
  "sourceName": "contracts/DonorTracking.sol",
  "abi": [
    {
      "anonymous": false,
      "inputs": [
        {
          "indexed": false,
          "internalType": "address",
          "name": "donor",
          "type": "address"
        },
        {
          "indexed": false,
          "internalType": "uint256",
          "name": "totalDonated",
          "type": "uint256"
        }
      ],
      "name": "DonorUpdated",
      "type": "event"
    },
    {
      "inputs": [],
      "name": "donate",
      "outputs": [],
      "stateMutability": "payable",
      "type": "function"
    },
    {
      "inputs": [
        {
          "internalType": "address",
          "name": "",
          "type": "address"
        }
      ],
      "name": "donors",
      "outputs": [
        {
          "internalType": "address",
          "name": "donorAddress",
          "type": "address"
        },
        {
          "internalType": "uint256",
          "name": "totalDonated",
          "type": "uint256"
        },
        {
          "internalType": "uint256",
          "name": "donationCount",
          "type": "uint256"
        }
      ],
      "stateMutability": "view",
      "type": "function"
    },
    {
      "inputs": [
        {
          "internalType": "address",
          "name": "donorAddress",
          "type": "address"
        }
      ],
      "name": "getDonorDetails",
      "outputs": [
        {
          "components": [
            {
              "internalType": "address",
              "name": "donorAddress",
              "type": "address"
            },
            {
              "internalType": "uint256",
              "name": "totalDonated",
              "type": "uint256"
            },
            {
              "internalType": "uint256",
              "name": "donationCount",
              "type": "uint256"
            }
          ],
          "internalType": "struct DonorTracking.Donor",
          "name": "",
          "type": "tuple"
        }
      ],
      "stateMutability": "view",
      "type": "function"
    }
  ],
  "bytecode": "0x6080604052348015600f57600080fd5b506106208061001f6000396000f3fe6080604052600436106100345760003560e01c8063afcb67d314610039578063ca0cdea814610076578063ed88c68e146100b5575b600080fd5b34801561004557600080fd5b50610060600480360381019061005b919061040f565b6100bf565b60405161006d91906104a6565b60405180910390f35b34801561008257600080fd5b5061009d6004803603810190610098919061040f565b610181565b6040516100ac939291906104df565b60405180910390f35b6100bd6101cb565b005b6100c7610375565b6000808373ffffffffffffffffffffffffffffffffffffffff1673ffffffffffffffffffffffffffffffffffffffff1681526020019081526020016000206040518060600160405290816000820160009054906101000a900473ffffffffffffffffffffffffffffffffffffffff1673ffffffffffffffffffffffffffffffffffffffff1673ffffffffffffffffffffffffffffffffffffffff168152602001600182015481526020016002820154815250509050919050565b60006020528060005260406000206000915090508060000160009054906101000a900473ffffffffffffffffffffffffffffffffffffffff16908060010154908060020154905083565b336000803373ffffffffffffffffffffffffffffffffffffffff1673ffffffffffffffffffffffffffffffffffffffff16815260200190815260200160002060000160006101000a81548173ffffffffffffffffffffffffffffffffffffffff021916908373ffffffffffffffffffffffffffffffffffffffff160217905550346000803373ffffffffffffffffffffffffffffffffffffffff1673ffffffffffffffffffffffffffffffffffffffff168152602001908152602001600020600101600082825461029c9190610545565b925050819055506000803373ffffffffffffffffffffffffffffffffffffffff1673ffffffffffffffffffffffffffffffffffffffff16815260200190815260200160002060020160008154809291906102f590610579565b91905055507e7efdd1233ee3ab07af63b892fda9940e5956e65371970f28f33341f2fccb3c336000803373ffffffffffffffffffffffffffffffffffffffff1673ffffffffffffffffffffffffffffffffffffffff1681526020019081526020016000206001015460405161036b9291906105c1565b60405180910390a1565b6040518060600160405280600073ffffffffffffffffffffffffffffffffffffffff16815260200160008152602001600081525090565b600080fd5b600073ffffffffffffffffffffffffffffffffffffffff82169050919050565b60006103dc826103b1565b9050919050565b6103ec816103d1565b81146103f757600080fd5b50565b600081359050610409816103e3565b92915050565b600060208284031215610425576104246103ac565b5b6000610433848285016103fa565b91505092915050565b610445816103d1565b82525050565b6000819050919050565b61045e8161044b565b82525050565b60608201600082015161047a600085018261043c565b50602082015161048d6020850182610455565b5060408201516104a06040850182610455565b50505050565b60006060820190506104bb6000830184610464565b92915050565b6104ca816103d1565b82525050565b6104d98161044b565b82525050565b60006060820190506104f460008301866104c1565b61050160208301856104d0565b61050e60408301846104d0565b949350505050565b7f4e487b7100000000000000000000000000000000000000000000000000000000600052601160045260246000fd5b60006105508261044b565b915061055b8361044b565b925082820190508082111561057357610572610516565b5b92915050565b60006105848261044b565b91507fffffffffffffffffffffffffffffffffffffffffffffffffffffffffffffffff82036105b6576105b5610516565b5b600182019050919050565b60006040820190506105d660008301856104c1565b6105e360208301846104d0565b939250505056fea26469706673582212206c35950157923f98f16b3b266dcc12908e0ba93e4a87a734889e68bce10b546264736f6c634300081c0033",
  "linkReferences": {},
  "deployedLinkReferences": {}
}