{
  "_format": "hh-sol-artifact-1",
  "contractName": "FieldWorker",
  "sourceName": "contracts/FieldWorker.sol",
  "abi": [
    {
      "anonymous": false,
      "inputs": [
        {
          "indexed": false,
          "internalType": "uint256",
          "name": "taskId",
          "type": "uint256"
        },
        {
          "indexed": false,
          "internalType": "address",
          "name": "fieldWorker",
          "type": "address"
        },
        {
          "indexed": false,
          "internalType": "string",
          "name": "description",
          "type": "string"
        }
      ],
      "name": "TaskAssigned",
      "type": "event"
    },
    {
      "anonymous": false,
      "inputs": [
        {
          "indexed": false,
          "internalType": "uint256",
          "name": "taskId",
          "type": "uint256"
        }
      ],
      "name": "TaskCompleted",
      "type": "event"
    },
    {
      "inputs": [
        {
          "internalType": "uint256",
          "name": "taskId",
          "type": "uint256"
        }
      ],
      "name": "completeTask",
      "outputs": [],
      "stateMutability": "nonpayable",
      "type": "function"
    },
    {
      "inputs": [
        {
          "internalType": "string",
          "name": "description",
          "type": "string"
        },
        {
          "internalType": "address",
          "name": "assignedTo",
          "type": "address"
        }
      ],
      "name": "createTask",
      "outputs": [],
      "stateMutability": "nonpayable",
      "type": "function"
    },
    {
      "inputs": [
        {
          "internalType": "uint256",
          "name": "taskId",
          "type": "uint256"
        }
      ],
      "name": "getTaskDetails",
      "outputs": [
        {
          "components": [
            {
              "internalType": "uint256",
              "name": "taskId",
              "type": "uint256"
            },
            {
              "internalType": "string",
              "name": "description",
              "type": "string"
            },
            {
              "internalType": "address",
              "name": "assignedTo",
              "type": "address"
            },
            {
              "internalType": "bool",
              "name": "completed",
              "type": "bool"
            }
          ],
          "internalType": "struct FieldWorker.Task",
          "name": "",
          "type": "tuple"
        }
      ],
      "stateMutability": "view",
      "type": "function"
    },
    {
      "inputs": [],
      "name": "nextTaskId",
      "outputs": [
        {
          "internalType": "uint256",
          "name": "",
          "type": "uint256"
        }
      ],
      "stateMutability": "view",
      "type": "function"
    },
    {
      "inputs": [
        {
          "internalType": "uint256",
          "name": "",
          "type": "uint256"
        }
      ],
      "name": "tasks",
      "outputs": [
        {
          "internalType": "uint256",
          "name": "taskId",
          "type": "uint256"
        },
        {
          "internalType": "string",
          "name": "description",
          "type": "string"
        },
        {
          "internalType": "address",
          "name": "assignedTo",
          "type": "address"
        },
        {
          "internalType": "bool",
          "name": "completed",
          "type": "bool"
        }
      ],
      "stateMutability": "view",
      "type": "function"
    }
  ],
  "bytecode": "0x6080604052348015600f57600080fd5b50610ea48061001f6000396000f3fe608060405234801561001057600080fd5b50600436106100575760003560e01c80633888b9d51461005c57806371a244b31461008c5780638d977672146100a8578063e1e29558146100db578063fdc3d8d7146100f7575b600080fd5b61007660048036038101906100719190610601565b610115565b604051610083919061078c565b60405180910390f35b6100a660048036038101906100a1919061090f565b61024e565b005b6100c260048036038101906100bd9190610601565b610381565b6040516100d294939291906109e2565b60405180910390f35b6100f560048036038101906100f09190610601565b610466565b005b6100ff610571565b60405161010c9190610a2e565b60405180910390f35b61011d610577565b6000808381526020019081526020016000206040518060800160405290816000820154815260200160018201805461015490610a78565b80601f016020809104026020016040519081016040528092919081815260200182805461018090610a78565b80156101cd5780601f106101a2576101008083540402835291602001916101cd565b820191906000526020600020905b8154815290600101906020018083116101b057829003601f168201915b505050505081526020016002820160009054906101000a900473ffffffffffffffffffffffffffffffffffffffff1673ffffffffffffffffffffffffffffffffffffffff1673ffffffffffffffffffffffffffffffffffffffff1681526020016002820160149054906101000a900460ff1615151515815250509050919050565b604051806080016040528060015481526020018381526020018273ffffffffffffffffffffffffffffffffffffffff1681526020016000151581525060008060015481526020019081526020016000206000820151816000015560208201518160010190816102bd9190610c55565b5060408201518160020160006101000a81548173ffffffffffffffffffffffffffffffffffffffff021916908373ffffffffffffffffffffffffffffffffffffffff16021790555060608201518160020160146101000a81548160ff0219169083151502179055509050507f972e7a0eeb1abecad874421f5f1da3440be2a852e4ea88b97a0b03c33764aebf600154828460405161035d93929190610d27565b60405180910390a16001600081548092919061037890610d94565b91905055505050565b60006020528060005260406000206000915090508060000154908060010180546103aa90610a78565b80601f01602080910402602001604051908101604052809291908181526020018280546103d690610a78565b80156104235780601f106103f857610100808354040283529160200191610423565b820191906000526020600020905b81548152906001019060200180831161040657829003601f168201915b5050505050908060020160009054906101000a900473ffffffffffffffffffffffffffffffffffffffff16908060020160149054906101000a900460ff16905084565b3373ffffffffffffffffffffffffffffffffffffffff1660008083815260200190815260200160002060020160009054906101000a900473ffffffffffffffffffffffffffffffffffffffff1673ffffffffffffffffffffffffffffffffffffffff1614610509576040517f08c379a000000000000000000000000000000000000000000000000000000000815260040161050090610e4e565b60405180910390fd5b600160008083815260200190815260200160002060020160146101000a81548160ff0219169083151502179055507fc1fa7142cfb933d0855114a3bffde296944c30b727f297c14d0db4d553d3a5c7816040516105669190610a2e565b60405180910390a150565b60015481565b60405180608001604052806000815260200160608152602001600073ffffffffffffffffffffffffffffffffffffffff1681526020016000151581525090565b6000604051905090565b600080fd5b600080fd5b6000819050919050565b6105de816105cb565b81146105e957600080fd5b50565b6000813590506105fb816105d5565b92915050565b600060208284031215610617576106166105c1565b5b6000610625848285016105ec565b91505092915050565b610637816105cb565b82525050565b600081519050919050565b600082825260208201905092915050565b60005b8381101561067757808201518184015260208101905061065c565b60008484015250505050565b6000601f19601f8301169050919050565b600061069f8261063d565b6106a98185610648565b93506106b9818560208601610659565b6106c281610683565b840191505092915050565b600073ffffffffffffffffffffffffffffffffffffffff82169050919050565b60006106f8826106cd565b9050919050565b610708816106ed565b82525050565b60008115159050919050565b6107238161070e565b82525050565b6000608083016000830151610741600086018261062e565b50602083015184820360208601526107598282610694565b915050604083015161076e60408601826106ff565b506060830151610781606086018261071a565b508091505092915050565b600060208201905081810360008301526107a68184610729565b905092915050565b600080fd5b600080fd5b7f4e487b7100000000000000000000000000000000000000000000000000000000600052604160045260246000fd5b6107f082610683565b810181811067ffffffffffffffff8211171561080f5761080e6107b8565b5b80604052505050565b60006108226105b7565b905061082e82826107e7565b919050565b600067ffffffffffffffff82111561084e5761084d6107b8565b5b61085782610683565b9050602081019050919050565b82818337600083830152505050565b600061088661088184610833565b610818565b9050828152602081018484840111156108a2576108a16107b3565b5b6108ad848285610864565b509392505050565b600082601f8301126108ca576108c96107ae565b5b81356108da848260208601610873565b91505092915050565b6108ec816106ed565b81146108f757600080fd5b50565b600081359050610909816108e3565b92915050565b60008060408385031215610926576109256105c1565b5b600083013567ffffffffffffffff811115610944576109436105c6565b5b610950858286016108b5565b9250506020610961858286016108fa565b9150509250929050565b610974816105cb565b82525050565b600082825260208201905092915050565b60006109968261063d565b6109a0818561097a565b93506109b0818560208601610659565b6109b981610683565b840191505092915050565b6109cd816106ed565b82525050565b6109dc8161070e565b82525050565b60006080820190506109f7600083018761096b565b8181036020830152610a09818661098b565b9050610a1860408301856109c4565b610a2560608301846109d3565b95945050505050565b6000602082019050610a43600083018461096b565b92915050565b7f4e487b7100000000000000000000000000000000000000000000000000000000600052602260045260246000fd5b60006002820490506001821680610a9057607f821691505b602082108103610aa357610aa2610a49565b5b50919050565b60008190508160005260206000209050919050565b60006020601f8301049050919050565b600082821b905092915050565b600060088302610b0b7fffffffffffffffffffffffffffffffffffffffffffffffffffffffffffffffff82610ace565b610b158683610ace565b95508019841693508086168417925050509392505050565b6000819050919050565b6000610b52610b4d610b48846105cb565b610b2d565b6105cb565b9050919050565b6000819050919050565b610b6c83610b37565b610b80610b7882610b59565b848454610adb565b825550505050565b600090565b610b95610b88565b610ba0818484610b63565b505050565b5b81811015610bc457610bb9600082610b8d565b600181019050610ba6565b5050565b601f821115610c0957610bda81610aa9565b610be384610abe565b81016020851015610bf2578190505b610c06610bfe85610abe565b830182610ba5565b50505b505050565b600082821c905092915050565b6000610c2c60001984600802610c0e565b1980831691505092915050565b6000610c458383610c1b565b9150826002028217905092915050565b610c5e8261063d565b67ffffffffffffffff811115610c7757610c766107b8565b5b610c818254610a78565b610c8c828285610bc8565b600060209050601f831160018114610cbf5760008415610cad578287015190505b610cb78582610c39565b865550610d1f565b601f198416610ccd86610aa9565b60005b82811015610cf557848901518255600182019150602085019450602081019050610cd0565b86831015610d125784890151610d0e601f891682610c1b565b8355505b6001600288020188555050505b505050505050565b6000606082019050610d3c600083018661096b565b610d4960208301856109c4565b8181036040830152610d5b818461098b565b9050949350505050565b7f4e487b7100000000000000000000000000000000000000000000000000000000600052601160045260246000fd5b6000610d9f826105cb565b91507fffffffffffffffffffffffffffffffffffffffffffffffffffffffffffffffff8203610dd157610dd0610d65565b5b600182019050919050565b7f596f7520617265206e6f742061737369676e656420746f20746869732074617360008201527f6b2e000000000000000000000000000000000000000000000000000000000000602082015250565b6000610e3860228361097a565b9150610e4382610ddc565b604082019050919050565b60006020820190508181036000830152610e6781610e2b565b905091905056fea2646970667358221220b460f0703796fa22981dd2d1d01824b9946d53bc5ab3405d7704f6bc2f1412bf64736f6c634300081c0033",
  "linkReferences": {},
  "deployedLinkReferences": {}
}