{
  "_format": "hh-sol-artifact-1",
  "contractName": "AidContract",
  "sourceName": "contracts/AidContract.sol",
  "abi": [
    {
      "inputs": [
        {
          "internalType": "address",
          "name": "_alternativePaymentsAddress",
          "type": "address"
        }
      ],
      "stateMutability": "nonpayable",
      "type": "constructor"
    },
    {
      "anonymous": false,
      "inputs": [
        {
          "indexed": false,
          "internalType": "uint256",
          "name": "id",
          "type": "uint256"
        },
        {
          "indexed": false,
          "internalType": "string",
          "name": "recipient",
          "type": "string"
        },
        {
          "indexed": false,
          "internalType": "string",
          "name": "aidType",
          "type": "string"
        },
        {
          "indexed": false,
          "internalType": "uint256",
          "name": "amount",
          "type": "uint256"
        },
        {
          "indexed": false,
          "internalType": "string",
          "name": "status",
          "type": "string"
        },
        {
          "indexed": false,
          "internalType": "address",
          "name": "addedBy",
          "type": "address"
        },
        {
          "indexed": false,
          "internalType": "string",
          "name": "paymentMethod",
          "type": "string"
        }
      ],
      "name": "AidAdded",
      "type": "event"
    },
    {
      "anonymous": false,
      "inputs": [
        {
          "indexed": true,
          "internalType": "address",
          "name": "recipient",
          "type": "address"
        },
        {
          "indexed": false,
          "internalType": "string",
          "name": "aidType",
          "type": "string"
        },
        {
          "indexed": false,
          "internalType": "uint256",
          "name": "amount",
          "type": "uint256"
        },
        {
          "indexed": false,
          "internalType": "uint256",
          "name": "timestamp",
          "type": "uint256"
        }
      ],
      "name": "AidDistributed",
      "type": "event"
    },
    {
      "anonymous": false,
      "inputs": [
        {
          "indexed": false,
          "internalType": "uint256",
          "name": "id",
          "type": "uint256"
        },
        {
          "indexed": false,
          "internalType": "string",
          "name": "status",
          "type": "string"
        }
      ],
      "name": "AidUpdated",
      "type": "event"
    },
    {
      "anonymous": false,
      "inputs": [
        {
          "indexed": true,
          "internalType": "address",
          "name": "donor",
          "type": "address"
        },
        {
          "indexed": false,
          "internalType": "string",
          "name": "name",
          "type": "string"
        },
        {
          "indexed": false,
          "internalType": "uint256",
          "name": "amount",
          "type": "uint256"
        }
      ],
      "name": "DonationReceived",
      "type": "event"
    },
    {
      "inputs": [
        {
          "internalType": "string",
          "name": "_recipient",
          "type": "string"
        },
        {
          "internalType": "string",
          "name": "_aidType",
          "type": "string"
        },
        {
          "internalType": "uint256",
          "name": "_amount",
          "type": "uint256"
        },
        {
          "internalType": "string",
          "name": "_paymentMethod",
          "type": "string"
        },
        {
          "internalType": "string",
          "name": "_paymentDetails",
          "type": "string"
        }
      ],
      "name": "addAidRecord",
      "outputs": [],
      "stateMutability": "nonpayable",
      "type": "function"
    },
    {
      "inputs": [],
      "name": "admin",
      "outputs": [
        {
          "internalType": "address",
          "name": "",
          "type": "address"
        }
      ],
      "stateMutability": "view",
      "type": "function"
    },
    {
      "inputs": [
        {
          "internalType": "uint256",
          "name": "",
          "type": "uint256"
        }
      ],
      "name": "aidRecords",
      "outputs": [
        {
          "internalType": "uint256",
          "name": "id",
          "type": "uint256"
        },
        {
          "internalType": "string",
          "name": "recipient",
          "type": "string"
        },
        {
          "internalType": "string",
          "name": "aidType",
          "type": "string"
        },
        {
          "internalType": "uint256",
          "name": "amount",
          "type": "uint256"
        },
        {
          "internalType": "string",
          "name": "status",
          "type": "string"
        },
        {
          "internalType": "address",
          "name": "addedBy",
          "type": "address"
        },
        {
          "internalType": "uint256",
          "name": "timestamp",
          "type": "uint256"
        },
        {
          "internalType": "string",
          "name": "paymentMethod",
          "type": "string"
        },
        {
          "internalType": "string",
          "name": "paymentDetails",
          "type": "string"
        }
      ],
      "stateMutability": "view",
      "type": "function"
    },
    {
      "inputs": [],
      "name": "alternativePayments",
      "outputs": [
        {
          "internalType": "contract AlternativePayments",
          "name": "",
          "type": "address"
        }
      ],
      "stateMutability": "view",
      "type": "function"
    },
    {
      "inputs": [
        {
          "internalType": "string",
          "name": "_name",
          "type": "string"
        }
      ],
      "name": "donate",
      "outputs": [],
      "stateMutability": "payable",
      "type": "function"
    },
    {
      "inputs": [
        {
          "internalType": "address",
          "name": "",
          "type": "address"
        }
      ],
      "name": "donors",
      "outputs": [
        {
          "internalType": "string",
          "name": "name",
          "type": "string"
        },
        {
          "internalType": "uint256",
          "name": "totalDonated",
          "type": "uint256"
        }
      ],
      "stateMutability": "view",
      "type": "function"
    },
    {
      "inputs": [
        {
          "internalType": "uint256",
          "name": "_id",
          "type": "uint256"
        }
      ],
      "name": "getAidRecord",
      "outputs": [
        {
          "internalType": "uint256",
          "name": "",
          "type": "uint256"
        },
        {
          "internalType": "string",
          "name": "",
          "type": "string"
        },
        {
          "internalType": "string",
          "name": "",
          "type": "string"
        },
        {
          "internalType": "uint256",
          "name": "",
          "type": "uint256"
        },
        {
          "internalType": "string",
          "name": "",
          "type": "string"
        },
        {
          "internalType": "address",
          "name": "",
          "type": "address"
        },
        {
          "internalType": "uint256",
          "name": "",
          "type": "uint256"
        },
        {
          "internalType": "string",
          "name": "",
          "type": "string"
        },
        {
          "internalType": "string",
          "name": "",
          "type": "string"
        }
      ],
      "stateMutability": "view",
      "type": "function"
    },
    {
      "inputs": [],
      "name": "getAllAidRecords",
      "outputs": [
        {
          "components": [
            {
              "internalType": "uint256",
              "name": "id",
              "type": "uint256"
            },
            {
              "internalType": "string",
              "name": "recipient",
              "type": "string"
            },
            {
              "internalType": "string",
              "name": "aidType",
              "type": "string"
            },
            {
              "internalType": "uint256",
              "name": "amount",
              "type": "uint256"
            },
            {
              "internalType": "string",
              "name": "status",
              "type": "string"
            },
            {
              "internalType": "address",
              "name": "addedBy",
              "type": "address"
            },
            {
              "internalType": "uint256",
              "name": "timestamp",
              "type": "uint256"
            },
            {
              "internalType": "string",
              "name": "paymentMethod",
              "type": "string"
            },
            {
              "internalType": "string",
              "name": "paymentDetails",
              "type": "string"
            }
          ],
          "internalType": "struct AidContract.AidRecord[]",
          "name": "",
          "type": "tuple[]"
        }
      ],
      "stateMutability": "view",
      "type": "function"
    },
    {
      "inputs": [
        {
          "internalType": "address",
          "name": "_donor",
          "type": "address"
        }
      ],
      "name": "getDonorDetails",
      "outputs": [
        {
          "internalType": "string",
          "name": "",
          "type": "string"
        },
        {
          "internalType": "uint256",
          "name": "",
          "type": "uint256"
        }
      ],
      "stateMutability": "view",
      "type": "function"
    },
    {
      "inputs": [],
      "name": "recordCount",
      "outputs": [
        {
          "internalType": "uint256",
          "name": "",
          "type": "uint256"
        }
      ],
      "stateMutability": "view",
      "type": "function"
    },
    {
      "inputs": [
        {
          "internalType": "uint256",
          "name": "_id",
          "type": "uint256"
        },
        {
          "internalType": "string",
          "name": "_status",
          "type": "string"
        }
      ],
      "name": "updateAidStatus",
      "outputs": [],
      "stateMutability": "nonpayable",
      "type": "function"
    }
  ],
  "bytecode": "0x608060405234801561001057600080fd5b50604051612a21380380612a218339818101604052810190610032919061011d565b33600460006101000a81548173ffffffffffffffffffffffffffffffffffffffff021916908373ffffffffffffffffffffffffffffffffffffffff16021790555080600260006101000a81548173ffffffffffffffffffffffffffffffffffffffff021916908373ffffffffffffffffffffffffffffffffffffffff1602179055505061014a565b600080fd5b600073ffffffffffffffffffffffffffffffffffffffff82169050919050565b60006100ea826100bf565b9050919050565b6100fa816100df565b811461010557600080fd5b50565b600081519050610117816100f1565b92915050565b600060208284031215610133576101326100ba565b5b600061014184828501610108565b91505092915050565b6128c8806101596000396000f3fe60806040526004361061009c5760003560e01c80637f0821d6116100645780637f0821d61461018e578063900407bc146101d3578063afcb67d3146101fe578063b5aebc801461023c578063ca0cdea814610258578063f851a440146102965761009c565b80631468edea146100a1578063189d41b7146100cc578063331e29781461011157806356700af21461013a57806359b28cea14610165575b600080fd5b3480156100ad57600080fd5b506100b66102c1565b6040516100c39190611a81565b60405180910390f35b3480156100d857600080fd5b506100f360048036038101906100ee9190611ae3565b6106de565b60405161010899989796959493929190611b78565b60405180910390f35b34801561011d57600080fd5b5061013860048036038101906101339190611d5d565b6109f4565b005b34801561014657600080fd5b5061014f610b3c565b60405161015c9190611e18565b60405180910390f35b34801561017157600080fd5b5061018c60048036038101906101879190611e33565b610b62565b005b34801561019a57600080fd5b506101b560048036038101906101b09190611ae3565b610f8a565b6040516101ca99989796959493929190611b78565b60405180910390f35b3480156101df57600080fd5b506101e861132b565b6040516101f59190611f1e565b60405180910390f35b34801561020a57600080fd5b5061022560048036038101906102209190611f65565b611331565b604051610233929190611f92565b60405180910390f35b61025660048036038101906102519190611fc2565b6114df565b005b34801561026457600080fd5b5061027f600480360381019061027a9190611f65565b6116c0565b60405161028d929190611f92565b60405180910390f35b3480156102a257600080fd5b506102ab61176c565b6040516102b8919061200b565b60405180910390f35b6060600060035467ffffffffffffffff8111156102e1576102e0611c32565b5b60405190808252806020026020018201604052801561031a57816020015b610307611792565b8152602001906001900390816102ff5790505b5090506000600190505b60035481116106d657600080828152602001908152602001600020604051806101200160405290816000820154815260200160018201805461036590612055565b80601f016020809104026020016040519081016040528092919081815260200182805461039190612055565b80156103de5780601f106103b3576101008083540402835291602001916103de565b820191906000526020600020905b8154815290600101906020018083116103c157829003601f168201915b505050505081526020016002820180546103f790612055565b80601f016020809104026020016040519081016040528092919081815260200182805461042390612055565b80156104705780601f1061044557610100808354040283529160200191610470565b820191906000526020600020905b81548152906001019060200180831161045357829003601f168201915b505050505081526020016003820154815260200160048201805461049390612055565b80601f01602080910402602001604051908101604052809291908181526020018280546104bf90612055565b801561050c5780601f106104e15761010080835404028352916020019161050c565b820191906000526020600020905b8154815290600101906020018083116104ef57829003601f168201915b505050505081526020016005820160009054906101000a900473ffffffffffffffffffffffffffffffffffffffff1673ffffffffffffffffffffffffffffffffffffffff1673ffffffffffffffffffffffffffffffffffffffff1681526020016006820154815260200160078201805461058590612055565b80601f01602080910402602001604051908101604052809291908181526020018280546105b190612055565b80156105fe5780601f106105d3576101008083540402835291602001916105fe565b820191906000526020600020905b8154815290600101906020018083116105e157829003601f168201915b5050505050815260200160088201805461061790612055565b80601f016020809104026020016040519081016040528092919081815260200182805461064390612055565b80156106905780601f1061066557610100808354040283529160200191610690565b820191906000526020600020905b81548152906001019060200180831161067357829003601f168201915b505050505081525050826001836106a791906120b5565b815181106106b8576106b76120e9565b5b602002602001018190525080806106ce90612118565b915050610324565b508091505090565b600060205280600052604060002060009150905080600001549080600101805461070790612055565b80601f016020809104026020016040519081016040528092919081815260200182805461073390612055565b80156107805780601f1061075557610100808354040283529160200191610780565b820191906000526020600020905b81548152906001019060200180831161076357829003601f168201915b50505050509080600201805461079590612055565b80601f01602080910402602001604051908101604052809291908181526020018280546107c190612055565b801561080e5780601f106107e35761010080835404028352916020019161080e565b820191906000526020600020905b8154815290600101906020018083116107f157829003601f168201915b50505050509080600301549080600401805461082990612055565b80601f016020809104026020016040519081016040528092919081815260200182805461085590612055565b80156108a25780601f10610877576101008083540402835291602001916108a2565b820191906000526020600020905b81548152906001019060200180831161088557829003601f168201915b5050505050908060050160009054906101000a900473ffffffffffffffffffffffffffffffffffffffff16908060060154908060070180546108e390612055565b80601f016020809104026020016040519081016040528092919081815260200182805461090f90612055565b801561095c5780601f106109315761010080835404028352916020019161095c565b820191906000526020600020905b81548152906001019060200180831161093f57829003601f168201915b50505050509080600801805461097190612055565b80601f016020809104026020016040519081016040528092919081815260200182805461099d90612055565b80156109ea5780601f106109bf576101008083540402835291602001916109ea565b820191906000526020600020905b8154815290600101906020018083116109cd57829003601f168201915b5050505050905089565b600460009054906101000a900473ffffffffffffffffffffffffffffffffffffffff1673ffffffffffffffffffffffffffffffffffffffff163373ffffffffffffffffffffffffffffffffffffffff1614610a84576040517f08c379a0000000000000000000000000000000000000000000000000000000008152600401610a7b906121d2565b60405180910390fd5b60008060008481526020019081526020016000206000015403610adc576040517f08c379a0000000000000000000000000000000000000000000000000000000008152600401610ad39061223e565b60405180910390fd5b806000808481526020019081526020016000206004019081610afe9190612400565b507f5b24f2eb6f4ee88e3e7fa4a1a8483c03ac2de724517e48ca3096c118cbc3d1388282604051610b309291906124d2565b60405180910390a15050565b600260009054906101000a900473ffffffffffffffffffffffffffffffffffffffff1681565b600460009054906101000a900473ffffffffffffffffffffffffffffffffffffffff1673ffffffffffffffffffffffffffffffffffffffff163373ffffffffffffffffffffffffffffffffffffffff1614610bf2576040517f08c379a0000000000000000000000000000000000000000000000000000000008152600401610be9906121d2565b60405180910390fd5b60036000815480929190610c0590612118565b919050555060405180610120016040528060035481526020018681526020018581526020018481526020016040518060400160405280600781526020017f50656e64696e670000000000000000000000000000000000000000000000000081525081526020013373ffffffffffffffffffffffffffffffffffffffff168152602001428152602001838152602001828152506000806003548152602001908152602001600020600082015181600001556020820151816001019081610cca9190612400565b506040820151816002019081610ce09190612400565b50606082015181600301556080820151816004019081610d009190612400565b5060a08201518160050160006101000a81548173ffffffffffffffffffffffffffffffffffffffff021916908373ffffffffffffffffffffffffffffffffffffffff16021790555060c0820151816006015560e0820151816007019081610d679190612400565b50610100820151816008019081610d7e9190612400565b509050507f4d35a7254232b504e40456fdae23c257b9bb749fe6f38112ab6a0701eb7ff57e6003548686863387604051610dbd9695949392919061254e565b60405180910390a16040518060400160405280600781526020017f564f55434845520000000000000000000000000000000000000000000000000081525080519060200120828051906020012003610ea857600260009054906101000a900473ffffffffffffffffffffffffffffffffffffffff1673ffffffffffffffffffffffffffffffffffffffff1663f05f89fd828588601e6040518563ffffffff1660e01b8152600401610e719493929190612612565b600060405180830381600087803b158015610e8b57600080fd5b505af1158015610e9f573d6000803e3d6000fd5b50505050610f83565b6040518060400160405280600c81526020017f4d4f42494c455f4d4f4e4559000000000000000000000000000000000000000081525080519060200120828051906020012003610f8257600260009054906101000a900473ffffffffffffffffffffffffffffffffffffffff1673ffffffffffffffffffffffffffffffffffffffff1663ce8c846782856040518363ffffffff1660e01b8152600401610f4f9291906126b1565b600060405180830381600087803b158015610f6957600080fd5b505af1158015610f7d573d6000803e3d6000fd5b505050505b5b5050505050565b60006060806000606060008060608060008060008c81526020019081526020016000206000015403610ff1576040517f08c379a0000000000000000000000000000000000000000000000000000000008152600401610fe89061223e565b60405180910390fd5b60008060008c81526020019081526020016000209050806000015481600101826002018360030154846004018560050160009054906101000a900473ffffffffffffffffffffffffffffffffffffffff168660060154876007018860080187805461105b90612055565b80601f016020809104026020016040519081016040528092919081815260200182805461108790612055565b80156110d45780601f106110a9576101008083540402835291602001916110d4565b820191906000526020600020905b8154815290600101906020018083116110b757829003601f168201915b505050505097508680546110e790612055565b80601f016020809104026020016040519081016040528092919081815260200182805461111390612055565b80156111605780601f1061113557610100808354040283529160200191611160565b820191906000526020600020905b81548152906001019060200180831161114357829003601f168201915b5050505050965084805461117390612055565b80601f016020809104026020016040519081016040528092919081815260200182805461119f90612055565b80156111ec5780601f106111c1576101008083540402835291602001916111ec565b820191906000526020600020905b8154815290600101906020018083116111cf57829003601f168201915b505050505094508180546111ff90612055565b80601f016020809104026020016040519081016040528092919081815260200182805461122b90612055565b80156112785780601f1061124d57610100808354040283529160200191611278565b820191906000526020600020905b81548152906001019060200180831161125b57829003601f168201915b5050505050915080805461128b90612055565b80601f01602080910402602001604051908101604052809291908181526020018280546112b790612055565b80156113045780601f106112d957610100808354040283529160200191611304565b820191906000526020600020905b8154815290600101906020018083116112e757829003601f168201915b50505050509050995099509950995099509950995099509950509193959799909294969850565b60035481565b6060600080600160008573ffffffffffffffffffffffffffffffffffffffff1673ffffffffffffffffffffffffffffffffffffffff168152602001908152602001600020600001805461138390612055565b9050116113c5576040517f08c379a00000000000000000000000000000000000000000000000000000000081526004016113bc90612740565b60405180910390fd5b600160008473ffffffffffffffffffffffffffffffffffffffff1673ffffffffffffffffffffffffffffffffffffffff168152602001908152602001600020600001600160008573ffffffffffffffffffffffffffffffffffffffff1673ffffffffffffffffffffffffffffffffffffffff1681526020019081526020016000206001015481805461145690612055565b80601f016020809104026020016040519081016040528092919081815260200182805461148290612055565b80156114cf5780601f106114a4576101008083540402835291602001916114cf565b820191906000526020600020905b8154815290600101906020018083116114b257829003601f168201915b5050505050915091509150915091565b662386f26fc10000341015611529576040517f08c379a0000000000000000000000000000000000000000000000000000000008152600401611520906127d2565b60405180910390fd5b600081511161156d576040517f08c379a00000000000000000000000000000000000000000000000000000000081526004016115649061283e565b60405180910390fd5b34600160003373ffffffffffffffffffffffffffffffffffffffff1673ffffffffffffffffffffffffffffffffffffffff16815260200190815260200160002060010160008282546115bf919061285e565b925050819055506000600160003373ffffffffffffffffffffffffffffffffffffffff1673ffffffffffffffffffffffffffffffffffffffff168152602001908152602001600020600001805461161590612055565b90500361166d5780600160003373ffffffffffffffffffffffffffffffffffffffff1673ffffffffffffffffffffffffffffffffffffffff168152602001908152602001600020600001908161166b9190612400565b505b3373ffffffffffffffffffffffffffffffffffffffff167f91a631485fcb697827429988737671b22367c3f76633aed1ed4193b7a52590ab82346040516116b5929190611f92565b60405180910390a250565b60016020528060005260406000206000915090508060000180546116e390612055565b80601f016020809104026020016040519081016040528092919081815260200182805461170f90612055565b801561175c5780601f106117315761010080835404028352916020019161175c565b820191906000526020600020905b81548152906001019060200180831161173f57829003601f168201915b5050505050908060010154905082565b600460009054906101000a900473ffffffffffffffffffffffffffffffffffffffff1681565b6040518061012001604052806000815260200160608152602001606081526020016000815260200160608152602001600073ffffffffffffffffffffffffffffffffffffffff1681526020016000815260200160608152602001606081525090565b600081519050919050565b600082825260208201905092915050565b6000819050602082019050919050565b6000819050919050565b61183381611820565b82525050565b600081519050919050565b600082825260208201905092915050565b60005b83811015611873578082015181840152602081019050611858565b60008484015250505050565b6000601f19601f8301169050919050565b600061189b82611839565b6118a58185611844565b93506118b5818560208601611855565b6118be8161187f565b840191505092915050565b600073ffffffffffffffffffffffffffffffffffffffff82169050919050565b60006118f4826118c9565b9050919050565b611904816118e9565b82525050565b600061012083016000830151611923600086018261182a565b506020830151848203602086015261193b8282611890565b915050604083015184820360408601526119558282611890565b915050606083015161196a606086018261182a565b50608083015184820360808601526119828282611890565b91505060a083015161199760a08601826118fb565b5060c08301516119aa60c086018261182a565b5060e083015184820360e08601526119c28282611890565b9150506101008301518482036101008601526119de8282611890565b9150508091505092915050565b60006119f7838361190a565b905092915050565b6000602082019050919050565b6000611a17826117f4565b611a2181856117ff565b935083602082028501611a3385611810565b8060005b85811015611a6f5784840389528151611a5085826119eb565b9450611a5b836119ff565b925060208a01995050600181019050611a37565b50829750879550505050505092915050565b60006020820190508181036000830152611a9b8184611a0c565b905092915050565b6000604051905090565b600080fd5b600080fd5b611ac081611820565b8114611acb57600080fd5b50565b600081359050611add81611ab7565b92915050565b600060208284031215611af957611af8611aad565b5b6000611b0784828501611ace565b91505092915050565b611b1981611820565b82525050565b600082825260208201905092915050565b6000611b3b82611839565b611b458185611b1f565b9350611b55818560208601611855565b611b5e8161187f565b840191505092915050565b611b72816118e9565b82525050565b600061012082019050611b8e600083018c611b10565b8181036020830152611ba0818b611b30565b90508181036040830152611bb4818a611b30565b9050611bc36060830189611b10565b8181036080830152611bd58188611b30565b9050611be460a0830187611b69565b611bf160c0830186611b10565b81810360e0830152611c038185611b30565b9050818103610100830152611c188184611b30565b90509a9950505050505050505050565b600080fd5b600080fd5b7f4e487b7100000000000000000000000000000000000000000000000000000000600052604160045260246000fd5b611c6a8261187f565b810181811067ffffffffffffffff82111715611c8957611c88611c32565b5b80604052505050565b6000611c9c611aa3565b9050611ca88282611c61565b919050565b600067ffffffffffffffff821115611cc857611cc7611c32565b5b611cd18261187f565b9050602081019050919050565b82818337600083830152505050565b6000611d00611cfb84611cad565b611c92565b905082815260208101848484011115611d1c57611d1b611c2d565b5b611d27848285611cde565b509392505050565b600082601f830112611d4457611d43611c28565b5b8135611d54848260208601611ced565b91505092915050565b60008060408385031215611d7457611d73611aad565b5b6000611d8285828601611ace565b925050602083013567ffffffffffffffff811115611da357611da2611ab2565b5b611daf85828601611d2f565b9150509250929050565b6000819050919050565b6000611dde611dd9611dd4846118c9565b611db9565b6118c9565b9050919050565b6000611df082611dc3565b9050919050565b6000611e0282611de5565b9050919050565b611e1281611df7565b82525050565b6000602082019050611e2d6000830184611e09565b92915050565b600080600080600060a08688031215611e4f57611e4e611aad565b5b600086013567ffffffffffffffff811115611e6d57611e6c611ab2565b5b611e7988828901611d2f565b955050602086013567ffffffffffffffff811115611e9a57611e99611ab2565b5b611ea688828901611d2f565b9450506040611eb788828901611ace565b935050606086013567ffffffffffffffff811115611ed857611ed7611ab2565b5b611ee488828901611d2f565b925050608086013567ffffffffffffffff811115611f0557611f04611ab2565b5b611f1188828901611d2f565b9150509295509295909350565b6000602082019050611f336000830184611b10565b92915050565b611f42816118e9565b8114611f4d57600080fd5b50565b600081359050611f5f81611f39565b92915050565b600060208284031215611f7b57611f7a611aad565b5b6000611f8984828501611f50565b91505092915050565b60006040820190508181036000830152611fac8185611b30565b9050611fbb6020830184611b10565b9392505050565b600060208284031215611fd857611fd7611aad565b5b600082013567ffffffffffffffff811115611ff657611ff5611ab2565b5b61200284828501611d2f565b91505092915050565b60006020820190506120206000830184611b69565b92915050565b7f4e487b7100000000000000000000000000000000000000000000000000000000600052602260045260246000fd5b6000600282049050600182168061206d57607f821691505b6020821081036120805761207f612026565b5b50919050565b7f4e487b7100000000000000000000000000000000000000000000000000000000600052601160045260246000fd5b60006120c082611820565b91506120cb83611820565b92508282039050818111156120e3576120e2612086565b5b92915050565b7f4e487b7100000000000000000000000000000000000000000000000000000000600052603260045260246000fd5b600061212382611820565b91507fffffffffffffffffffffffffffffffffffffffffffffffffffffffffffffffff820361215557612154612086565b5b600182019050919050565b7f4f6e6c792061646d696e2063616e20706572666f726d2074686973206163746960008201527f6f6e000000000000000000000000000000000000000000000000000000000000602082015250565b60006121bc602283611b1f565b91506121c782612160565b604082019050919050565b600060208201905081810360008301526121eb816121af565b9050919050565b7f5265636f7264206e6f7420666f756e6400000000000000000000000000000000600082015250565b6000612228601083611b1f565b9150612233826121f2565b602082019050919050565b600060208201905081810360008301526122578161221b565b9050919050565b60008190508160005260206000209050919050565b60006020601f8301049050919050565b600082821b905092915050565b6000600883026122c07fffffffffffffffffffffffffffffffffffffffffffffffffffffffffffffffff82612283565b6122ca8683612283565b95508019841693508086168417925050509392505050565b60006122fd6122f86122f384611820565b611db9565b611820565b9050919050565b6000819050919050565b612317836122e2565b61232b61232382612304565b848454612290565b825550505050565b600090565b612340612333565b61234b81848461230e565b505050565b5b8181101561236f57612364600082612338565b600181019050612351565b5050565b601f8211156123b4576123858161225e565b61238e84612273565b8101602085101561239d578190505b6123b16123a985612273565b830182612350565b50505b505050565b600082821c905092915050565b60006123d7600019846008026123b9565b1980831691505092915050565b60006123f083836123c6565b9150826002028217905092915050565b61240982611839565b67ffffffffffffffff81111561242257612421611c32565b5b61242c8254612055565b612437828285612373565b600060209050601f83116001811461246a5760008415612458578287015190505b61246285826123e4565b8655506124ca565b601f1984166124788661225e565b60005b828110156124a05784890151825560018201915060208501945060208101905061247b565b868310156124bd57848901516124b9601f8916826123c6565b8355505b6001600288020188555050505b505050505050565b60006040820190506124e76000830185611b10565b81810360208301526124f98184611b30565b90509392505050565b7f50656e64696e6700000000000000000000000000000000000000000000000000600082015250565b6000612538600783611b1f565b915061254382612502565b602082019050919050565b600060e0820190506125636000830189611b10565b81810360208301526125758188611b30565b905081810360408301526125898187611b30565b90506125986060830186611b10565b81810360808301526125a98161252b565b90506125b860a0830185611b69565b81810360c08301526125ca8184611b30565b9050979650505050505050565b6000819050919050565b60006125fc6125f76125f2846125d7565b611db9565b611820565b9050919050565b61260c816125e1565b82525050565b6000608082019050818103600083015261262c8187611b30565b905061263b6020830186611b10565b818103604083015261264d8185611b30565b905061265c6060830184612603565b95945050505050565b7f4d2d506573610000000000000000000000000000000000000000000000000000600082015250565b600061269b600683611b1f565b91506126a682612665565b602082019050919050565b600060608201905081810360008301526126cb8185611b30565b90506126da6020830184611b10565b81810360408301526126eb8161268e565b90509392505050565b7f446f6e6f72206e6f7420666f756e640000000000000000000000000000000000600082015250565b600061272a600f83611b1f565b9150612735826126f4565b602082019050919050565b600060208201905081810360008301526127598161271d565b9050919050565b7f4d696e696d756d20646f6e6174696f6e20616d6f756e7420697320302e30312060008201527f4554480000000000000000000000000000000000000000000000000000000000602082015250565b60006127bc602383611b1f565b91506127c782612760565b604082019050919050565b600060208201905081810360008301526127eb816127af565b9050919050565b7f446f6e6f72206e616d652063616e6e6f7420626520656d707479000000000000600082015250565b6000612828601a83611b1f565b9150612833826127f2565b602082019050919050565b600060208201905081810360008301526128578161281b565b9050919050565b600061286982611820565b915061287483611820565b925082820190508082111561288c5761288b612086565b5b9291505056fea26469706673582212201f2f2b10a66c4d5ca17ea3c13a3b04e420457cac1e2dd0c7d4bf290d2406229d64736f6c634300081c0033",
  "linkReferences": {},
  "deployedLinkReferences": {}
}