{
  "_format": "hh-sol-artifact-1",
  "contractName": "AidDistribution",
  "sourceName": "contracts/AidDistribution.sol",
  "abi": [
    {
      "anonymous": false,
      "inputs": [
        {
          "indexed": false,
          "internalType": "uint256",
          "name": "id",
          "type": "uint256"
        },
        {
          "indexed": false,
          "internalType": "address",
          "name": "recipient",
          "type": "address"
        },
        {
          "indexed": false,
          "internalType": "uint256",
          "name": "amount",
          "type": "uint256"
        }
      ],
      "name": "AidDistributed",
      "type": "event"
    },
    {
      "anonymous": false,
      "inputs": [
        {
          "indexed": false,
          "internalType": "address",
          "name": "donor",
          "type": "address"
        },
        {
          "indexed": false,
          "internalType": "uint256",
          "name": "amount",
          "type": "uint256"
        }
      ],
      "name": "AidDonated",
      "type": "event"
    },
    {
      "inputs": [
        {
          "internalType": "uint256",
          "name": "",
          "type": "uint256"
        }
      ],
      "name": "aidRecords",
      "outputs": [
        {
          "internalType": "uint256",
          "name": "id",
          "type": "uint256"
        },
        {
          "internalType": "string",
          "name": "description",
          "type": "string"
        },
        {
          "internalType": "uint256",
          "name": "amount",
          "type": "uint256"
        },
        {
          "internalType": "address",
          "name": "recipient",
          "type": "address"
        },
        {
          "internalType": "bool",
          "name": "distributed",
          "type": "bool"
        },
        {
          "internalType": "uint256",
          "name": "timestamp",
          "type": "uint256"
        }
      ],
      "stateMutability": "view",
      "type": "function"
    },
    {
      "inputs": [
        {
          "internalType": "string",
          "name": "description",
          "type": "string"
        },
        {
          "internalType": "uint256",
          "name": "amount",
          "type": "uint256"
        },
        {
          "internalType": "address",
          "name": "recipient",
          "type": "address"
        }
      ],
      "name": "createAidRecord",
      "outputs": [],
      "stateMutability": "nonpayable",
      "type": "function"
    },
    {
      "inputs": [
        {
          "internalType": "uint256",
          "name": "id",
          "type": "uint256"
        }
      ],
      "name": "distributeAid",
      "outputs": [],
      "stateMutability": "nonpayable",
      "type": "function"
    },
    {
      "inputs": [],
      "name": "donate",
      "outputs": [],
      "stateMutability": "payable",
      "type": "function"
    },
    {
      "inputs": [
        {
          "internalType": "address",
          "name": "",
          "type": "address"
        }
      ],
      "name": "donorTotalAid",
      "outputs": [
        {
          "internalType": "uint256",
          "name": "",
          "type": "uint256"
        }
      ],
      "stateMutability": "view",
      "type": "function"
    },
    {
      "inputs": [
        {
          "internalType": "uint256",
          "name": "id",
          "type": "uint256"
        }
      ],
      "name": "getAidRecord",
      "outputs": [
        {
          "components": [
            {
              "internalType": "uint256",
              "name": "id",
              "type": "uint256"
            },
            {
              "internalType": "string",
              "name": "description",
              "type": "string"
            },
            {
              "internalType": "uint256",
              "name": "amount",
              "type": "uint256"
            },
            {
              "internalType": "address",
              "name": "recipient",
              "type": "address"
            },
            {
              "internalType": "bool",
              "name": "distributed",
              "type": "bool"
            },
            {
              "internalType": "uint256",
              "name": "timestamp",
              "type": "uint256"
            }
          ],
          "internalType": "struct AidDistribution.AidRecord",
          "name": "",
          "type": "tuple"
        }
      ],
      "stateMutability": "view",
      "type": "function"
    },
    {
      "inputs": [
        {
          "internalType": "address",
          "name": "donor",
          "type": "address"
        }
      ],
      "name": "getDonorDetails",
      "outputs": [
        {
          "internalType": "uint256",
          "name": "",
          "type": "uint256"
        }
      ],
      "stateMutability": "view",
      "type": "function"
    },
    {
      "inputs": [],
      "name": "nextId",
      "outputs": [
        {
          "internalType": "uint256",
          "name": "",
          "type": "uint256"
        }
      ],
      "stateMutability": "view",
      "type": "function"
    }
  ],
  "bytecode": "0x6080604052348015600f57600080fd5b506112288061001f6000396000f3fe60806040526004361061007b5760003560e01c80637f0821d61161004e5780637f0821d61461013f578063afcb67d31461017c578063ed88c68e146101b9578063f26b2793146101c35761007b565b8063189d41b7146100805780633ca751dd146100c25780634098d704146100eb57806361b8ce8c14610114575b600080fd5b34801561008c57600080fd5b506100a760048036038101906100a29190610841565b610200565b6040516100b996959493929190610969565b60405180910390f35b3480156100ce57600080fd5b506100e960048036038101906100e49190610841565b6102f1565b005b3480156100f757600080fd5b50610112600480360381019061010d9190610b32565b61040a565b005b34801561012057600080fd5b50610129610521565b6040516101369190610ba1565b60405180910390f35b34801561014b57600080fd5b5061016660048036038101906101619190610841565b610527565b6040516101739190610cbc565b60405180910390f35b34801561018857600080fd5b506101a3600480360381019061019e9190610cde565b610674565b6040516101b09190610ba1565b60405180910390f35b6101c16106bd565b005b3480156101cf57600080fd5b506101ea60048036038101906101e59190610cde565b610791565b6040516101f79190610ba1565b60405180910390f35b600060205280600052604060002060009150905080600001549080600101805461022990610d3a565b80601f016020809104026020016040519081016040528092919081815260200182805461025590610d3a565b80156102a25780601f10610277576101008083540402835291602001916102a2565b820191906000526020600020905b81548152906001019060200180831161028557829003601f168201915b5050505050908060020154908060030160009054906101000a900473ffffffffffffffffffffffffffffffffffffffff16908060030160149054906101000a900460ff16908060040154905086565b60008082815260200190815260200160002060030160149054906101000a900460ff1615610354576040517f08c379a000000000000000000000000000000000000000000000000000000000815260040161034b90610db7565b60405180910390fd5b600160008083815260200190815260200160002060030160146101000a81548160ff0219169083151502179055507f5f853222c35ebd246e12a305e21db3f65a0bb846ee03715888008bb148b891928160008084815260200190815260200160002060030160009054906101000a900473ffffffffffffffffffffffffffffffffffffffff16600080858152602001908152602001600020600201546040516103ff93929190610dd7565b60405180910390a150565b6040518060c0016040528060025481526020018481526020018381526020018273ffffffffffffffffffffffffffffffffffffffff1681526020016000151581526020014281525060008060025481526020019081526020016000206000820151816000015560208201518160010190816104859190610fba565b506040820151816002015560608201518160030160006101000a81548173ffffffffffffffffffffffffffffffffffffffff021916908373ffffffffffffffffffffffffffffffffffffffff16021790555060808201518160030160146101000a81548160ff02191690831515021790555060a0820151816004015590505060026000815480929190610517906110bb565b9190505550505050565b60025481565b61052f6107a9565b6000808381526020019081526020016000206040518060c00160405290816000820154815260200160018201805461056690610d3a565b80601f016020809104026020016040519081016040528092919081815260200182805461059290610d3a565b80156105df5780601f106105b4576101008083540402835291602001916105df565b820191906000526020600020905b8154815290600101906020018083116105c257829003601f168201915b50505050508152602001600282015481526020016003820160009054906101000a900473ffffffffffffffffffffffffffffffffffffffff1673ffffffffffffffffffffffffffffffffffffffff1673ffffffffffffffffffffffffffffffffffffffff1681526020016003820160149054906101000a900460ff161515151581526020016004820154815250509050919050565b6000600160008373ffffffffffffffffffffffffffffffffffffffff1673ffffffffffffffffffffffffffffffffffffffff168152602001908152602001600020549050919050565b60003411610700576040517f08c379a00000000000000000000000000000000000000000000000000000000081526004016106f790611175565b60405180910390fd5b34600160003373ffffffffffffffffffffffffffffffffffffffff1673ffffffffffffffffffffffffffffffffffffffff168152602001908152602001600020600082825461074f9190611195565b925050819055507f65774aba20900fc20e6863843baa834c34b5b8d186e4b12993bb2ee71767635433346040516107879291906111c9565b60405180910390a1565b60016020528060005260406000206000915090505481565b6040518060c00160405280600081526020016060815260200160008152602001600073ffffffffffffffffffffffffffffffffffffffff168152602001600015158152602001600081525090565b6000604051905090565b600080fd5b600080fd5b6000819050919050565b61081e8161080b565b811461082957600080fd5b50565b60008135905061083b81610815565b92915050565b60006020828403121561085757610856610801565b5b60006108658482850161082c565b91505092915050565b6108778161080b565b82525050565b600081519050919050565b600082825260208201905092915050565b60005b838110156108b757808201518184015260208101905061089c565b60008484015250505050565b6000601f19601f8301169050919050565b60006108df8261087d565b6108e98185610888565b93506108f9818560208601610899565b610902816108c3565b840191505092915050565b600073ffffffffffffffffffffffffffffffffffffffff82169050919050565b60006109388261090d565b9050919050565b6109488161092d565b82525050565b60008115159050919050565b6109638161094e565b82525050565b600060c08201905061097e600083018961086e565b818103602083015261099081886108d4565b905061099f604083018761086e565b6109ac606083018661093f565b6109b9608083018561095a565b6109c660a083018461086e565b979650505050505050565b600080fd5b600080fd5b7f4e487b7100000000000000000000000000000000000000000000000000000000600052604160045260246000fd5b610a13826108c3565b810181811067ffffffffffffffff82111715610a3257610a316109db565b5b80604052505050565b6000610a456107f7565b9050610a518282610a0a565b919050565b600067ffffffffffffffff821115610a7157610a706109db565b5b610a7a826108c3565b9050602081019050919050565b82818337600083830152505050565b6000610aa9610aa484610a56565b610a3b565b905082815260208101848484011115610ac557610ac46109d6565b5b610ad0848285610a87565b509392505050565b600082601f830112610aed57610aec6109d1565b5b8135610afd848260208601610a96565b91505092915050565b610b0f8161092d565b8114610b1a57600080fd5b50565b600081359050610b2c81610b06565b92915050565b600080600060608486031215610b4b57610b4a610801565b5b600084013567ffffffffffffffff811115610b6957610b68610806565b5b610b7586828701610ad8565b9350506020610b868682870161082c565b9250506040610b9786828701610b1d565b9150509250925092565b6000602082019050610bb6600083018461086e565b92915050565b610bc58161080b565b82525050565b600082825260208201905092915050565b6000610be78261087d565b610bf18185610bcb565b9350610c01818560208601610899565b610c0a816108c3565b840191505092915050565b610c1e8161092d565b82525050565b610c2d8161094e565b82525050565b600060c083016000830151610c4b6000860182610bbc565b5060208301518482036020860152610c638282610bdc565b9150506040830151610c786040860182610bbc565b506060830151610c8b6060860182610c15565b506080830151610c9e6080860182610c24565b5060a0830151610cb160a0860182610bbc565b508091505092915050565b60006020820190508181036000830152610cd68184610c33565b905092915050565b600060208284031215610cf457610cf3610801565b5b6000610d0284828501610b1d565b91505092915050565b7f4e487b7100000000000000000000000000000000000000000000000000000000600052602260045260246000fd5b60006002820490506001821680610d5257607f821691505b602082108103610d6557610d64610d0b565b5b50919050565b7f41696420616c72656164792064697374726962757465642e0000000000000000600082015250565b6000610da1601883610888565b9150610dac82610d6b565b602082019050919050565b60006020820190508181036000830152610dd081610d94565b9050919050565b6000606082019050610dec600083018661086e565b610df9602083018561093f565b610e06604083018461086e565b949350505050565b60008190508160005260206000209050919050565b60006020601f8301049050919050565b600082821b905092915050565b600060088302610e707fffffffffffffffffffffffffffffffffffffffffffffffffffffffffffffffff82610e33565b610e7a8683610e33565b95508019841693508086168417925050509392505050565b6000819050919050565b6000610eb7610eb2610ead8461080b565b610e92565b61080b565b9050919050565b6000819050919050565b610ed183610e9c565b610ee5610edd82610ebe565b848454610e40565b825550505050565b600090565b610efa610eed565b610f05818484610ec8565b505050565b5b81811015610f2957610f1e600082610ef2565b600181019050610f0b565b5050565b601f821115610f6e57610f3f81610e0e565b610f4884610e23565b81016020851015610f57578190505b610f6b610f6385610e23565b830182610f0a565b50505b505050565b600082821c905092915050565b6000610f9160001984600802610f73565b1980831691505092915050565b6000610faa8383610f80565b9150826002028217905092915050565b610fc38261087d565b67ffffffffffffffff811115610fdc57610fdb6109db565b5b610fe68254610d3a565b610ff1828285610f2d565b600060209050601f8311600181146110245760008415611012578287015190505b61101c8582610f9e565b865550611084565b601f19841661103286610e0e565b60005b8281101561105a57848901518255600182019150602085019450602081019050611035565b868310156110775784890151611073601f891682610f80565b8355505b6001600288020188555050505b505050505050565b7f4e487b7100000000000000000000000000000000000000000000000000000000600052601160045260246000fd5b60006110c68261080b565b91507fffffffffffffffffffffffffffffffffffffffffffffffffffffffffffffffff82036110f8576110f761108c565b5b600182019050919050565b7f446f6e6174696f6e206d7573742062652067726561746572207468616e207a6560008201527f726f000000000000000000000000000000000000000000000000000000000000602082015250565b600061115f602283610888565b915061116a82611103565b604082019050919050565b6000602082019050818103600083015261118e81611152565b9050919050565b60006111a08261080b565b91506111ab8361080b565b92508282019050808211156111c3576111c261108c565b5b92915050565b60006040820190506111de600083018561093f565b6111eb602083018461086e565b939250505056fea2646970667358221220001080066a5024908ca5eb778ccf6cc48571362c4661004140e09904bbc78e7964736f6c634300081c0033",
  "linkReferences": {},
  "deployedLinkReferences": {}
}