{
  "_format": "hh-sol-artifact-1",
  "contractName": "AidDistribution",
  "sourceName": "contracts/AidDistribution.sol",
  "abi": [
    {
      "anonymous": false,
      "inputs": [
        {
          "indexed": false,
          "internalType": "uint256",
          "name": "id",
          "type": "uint256"
        },
        {
          "indexed": false,
          "internalType": "address",
          "name": "recipient",
          "type": "address"
        },
        {
          "indexed": false,
          "internalType": "uint256",
          "name": "amount",
          "type": "uint256"
        }
      ],
      "name": "AidDistributed",
      "type": "event"
    },
    {
      "anonymous": false,
      "inputs": [
        {
          "indexed": false,
          "internalType": "address",
          "name": "donor",
          "type": "address"
        },
        {
          "indexed": false,
          "internalType": "uint256",
          "name": "amount",
          "type": "uint256"
        }
      ],
      "name": "AidDonated",
      "type": "event"
    },
    {
      "inputs": [
        {
          "internalType": "uint256",
          "name": "",
          "type": "uint256"
        }
      ],
      "name": "aidRecords",
      "outputs": [
        {
          "internalType": "uint256",
          "name": "id",
          "type": "uint256"
        },
        {
          "internalType": "string",
          "name": "description",
          "type": "string"
        },
        {
          "internalType": "uint256",
          "name": "amount",
          "type": "uint256"
        },
        {
          "internalType": "address",
          "name": "recipient",
          "type": "address"
        },
        {
          "internalType": "bool",
          "name": "distributed",
          "type": "bool"
        }
      ],
      "stateMutability": "view",
      "type": "function"
    },
    {
      "inputs": [
        {
          "internalType": "string",
          "name": "description",
          "type": "string"
        },
        {
          "internalType": "uint256",
          "name": "amount",
          "type": "uint256"
        },
        {
          "internalType": "address",
          "name": "recipient",
          "type": "address"
        }
      ],
      "name": "createAidRecord",
      "outputs": [],
      "stateMutability": "nonpayable",
      "type": "function"
    },
    {
      "inputs": [
        {
          "internalType": "uint256",
          "name": "id",
          "type": "uint256"
        }
      ],
      "name": "distributeAid",
      "outputs": [],
      "stateMutability": "nonpayable",
      "type": "function"
    },
    {
      "inputs": [],
      "name": "donate",
      "outputs": [],
      "stateMutability": "payable",
      "type": "function"
    },
    {
      "inputs": [
        {
          "internalType": "address",
          "name": "",
          "type": "address"
        }
      ],
      "name": "donorTotalAid",
      "outputs": [
        {
          "internalType": "uint256",
          "name": "",
          "type": "uint256"
        }
      ],
      "stateMutability": "view",
      "type": "function"
    },
    {
      "inputs": [
        {
          "internalType": "uint256",
          "name": "id",
          "type": "uint256"
        }
      ],
      "name": "getAidRecord",
      "outputs": [
        {
          "components": [
            {
              "internalType": "uint256",
              "name": "id",
              "type": "uint256"
            },
            {
              "internalType": "string",
              "name": "description",
              "type": "string"
            },
            {
              "internalType": "uint256",
              "name": "amount",
              "type": "uint256"
            },
            {
              "internalType": "address",
              "name": "recipient",
              "type": "address"
            },
            {
              "internalType": "bool",
              "name": "distributed",
              "type": "bool"
            }
          ],
          "internalType": "struct AidDistribution.AidRecord",
          "name": "",
          "type": "tuple"
        }
      ],
      "stateMutability": "view",
      "type": "function"
    },
    {
      "inputs": [
        {
          "internalType": "address",
          "name": "donor",
          "type": "address"
        }
      ],
      "name": "getDonorDetails",
      "outputs": [
        {
          "internalType": "uint256",
          "name": "",
          "type": "uint256"
        }
      ],
      "stateMutability": "view",
      "type": "function"
    },
    {
      "inputs": [],
      "name": "nextId",
      "outputs": [
        {
          "internalType": "uint256",
          "name": "",
          "type": "uint256"
        }
      ],
      "stateMutability": "view",
      "type": "function"
    }
  ],
  "bytecode": "0x6080604052348015600f57600080fd5b506111df8061001f6000396000f3fe60806040526004361061007b5760003560e01c80637f0821d61161004e5780637f0821d61461013e578063afcb67d31461017b578063ed88c68e146101b8578063f26b2793146101c25761007b565b8063189d41b7146100805780633ca751dd146100c15780634098d704146100ea57806361b8ce8c14610113575b600080fd5b34801561008c57600080fd5b506100a760048036038101906100a29190610819565b6101ff565b6040516100b8959493929190610941565b60405180910390f35b3480156100cd57600080fd5b506100e860048036038101906100e39190610819565b6102ea565b005b3480156100f657600080fd5b50610111600480360381019061010c9190610afc565b610403565b005b34801561011f57600080fd5b5061012861050a565b6040516101359190610b6b565b60405180910390f35b34801561014a57600080fd5b5061016560048036038101906101609190610819565b610510565b6040516101729190610c73565b60405180910390f35b34801561018757600080fd5b506101a2600480360381019061019d9190610c95565b610653565b6040516101af9190610b6b565b60405180910390f35b6101c061069c565b005b3480156101ce57600080fd5b506101e960048036038101906101e49190610c95565b610770565b6040516101f69190610b6b565b60405180910390f35b600060205280600052604060002060009150905080600001549080600101805461022890610cf1565b80601f016020809104026020016040519081016040528092919081815260200182805461025490610cf1565b80156102a15780601f10610276576101008083540402835291602001916102a1565b820191906000526020600020905b81548152906001019060200180831161028457829003601f168201915b5050505050908060020154908060030160009054906101000a900473ffffffffffffffffffffffffffffffffffffffff16908060030160149054906101000a900460ff16905085565b60008082815260200190815260200160002060030160149054906101000a900460ff161561034d576040517f08c379a000000000000000000000000000000000000000000000000000000000815260040161034490610d6e565b60405180910390fd5b600160008083815260200190815260200160002060030160146101000a81548160ff0219169083151502179055507f5f853222c35ebd246e12a305e21db3f65a0bb846ee03715888008bb148b891928160008084815260200190815260200160002060030160009054906101000a900473ffffffffffffffffffffffffffffffffffffffff16600080858152602001908152602001600020600201546040516103f893929190610d8e565b60405180910390a150565b6040518060a0016040528060025481526020018481526020018381526020018273ffffffffffffffffffffffffffffffffffffffff1681526020016000151581525060008060025481526020019081526020016000206000820151816000015560208201518160010190816104789190610f71565b506040820151816002015560608201518160030160006101000a81548173ffffffffffffffffffffffffffffffffffffffff021916908373ffffffffffffffffffffffffffffffffffffffff16021790555060808201518160030160146101000a81548160ff0219169083151502179055509050506002600081548092919061050090611072565b9190505550505050565b60025481565b610518610788565b6000808381526020019081526020016000206040518060a00160405290816000820154815260200160018201805461054f90610cf1565b80601f016020809104026020016040519081016040528092919081815260200182805461057b90610cf1565b80156105c85780601f1061059d576101008083540402835291602001916105c8565b820191906000526020600020905b8154815290600101906020018083116105ab57829003601f168201915b50505050508152602001600282015481526020016003820160009054906101000a900473ffffffffffffffffffffffffffffffffffffffff1673ffffffffffffffffffffffffffffffffffffffff1673ffffffffffffffffffffffffffffffffffffffff1681526020016003820160149054906101000a900460ff1615151515815250509050919050565b6000600160008373ffffffffffffffffffffffffffffffffffffffff1673ffffffffffffffffffffffffffffffffffffffff168152602001908152602001600020549050919050565b600034116106df576040517f08c379a00000000000000000000000000000000000000000000000000000000081526004016106d69061112c565b60405180910390fd5b34600160003373ffffffffffffffffffffffffffffffffffffffff1673ffffffffffffffffffffffffffffffffffffffff168152602001908152602001600020600082825461072e919061114c565b925050819055507f65774aba20900fc20e6863843baa834c34b5b8d186e4b12993bb2ee7176763543334604051610766929190611180565b60405180910390a1565b60016020528060005260406000206000915090505481565b6040518060a00160405280600081526020016060815260200160008152602001600073ffffffffffffffffffffffffffffffffffffffff1681526020016000151581525090565b6000604051905090565b600080fd5b600080fd5b6000819050919050565b6107f6816107e3565b811461080157600080fd5b50565b600081359050610813816107ed565b92915050565b60006020828403121561082f5761082e6107d9565b5b600061083d84828501610804565b91505092915050565b61084f816107e3565b82525050565b600081519050919050565b600082825260208201905092915050565b60005b8381101561088f578082015181840152602081019050610874565b60008484015250505050565b6000601f19601f8301169050919050565b60006108b782610855565b6108c18185610860565b93506108d1818560208601610871565b6108da8161089b565b840191505092915050565b600073ffffffffffffffffffffffffffffffffffffffff82169050919050565b6000610910826108e5565b9050919050565b61092081610905565b82525050565b60008115159050919050565b61093b81610926565b82525050565b600060a0820190506109566000830188610846565b818103602083015261096881876108ac565b90506109776040830186610846565b6109846060830185610917565b6109916080830184610932565b9695505050505050565b600080fd5b600080fd5b7f4e487b7100000000000000000000000000000000000000000000000000000000600052604160045260246000fd5b6109dd8261089b565b810181811067ffffffffffffffff821117156109fc576109fb6109a5565b5b80604052505050565b6000610a0f6107cf565b9050610a1b82826109d4565b919050565b600067ffffffffffffffff821115610a3b57610a3a6109a5565b5b610a448261089b565b9050602081019050919050565b82818337600083830152505050565b6000610a73610a6e84610a20565b610a05565b905082815260208101848484011115610a8f57610a8e6109a0565b5b610a9a848285610a51565b509392505050565b600082601f830112610ab757610ab661099b565b5b8135610ac7848260208601610a60565b91505092915050565b610ad981610905565b8114610ae457600080fd5b50565b600081359050610af681610ad0565b92915050565b600080600060608486031215610b1557610b146107d9565b5b600084013567ffffffffffffffff811115610b3357610b326107de565b5b610b3f86828701610aa2565b9350506020610b5086828701610804565b9250506040610b6186828701610ae7565b9150509250925092565b6000602082019050610b806000830184610846565b92915050565b610b8f816107e3565b82525050565b600082825260208201905092915050565b6000610bb182610855565b610bbb8185610b95565b9350610bcb818560208601610871565b610bd48161089b565b840191505092915050565b610be881610905565b82525050565b610bf781610926565b82525050565b600060a083016000830151610c156000860182610b86565b5060208301518482036020860152610c2d8282610ba6565b9150506040830151610c426040860182610b86565b506060830151610c556060860182610bdf565b506080830151610c686080860182610bee565b508091505092915050565b60006020820190508181036000830152610c8d8184610bfd565b905092915050565b600060208284031215610cab57610caa6107d9565b5b6000610cb984828501610ae7565b91505092915050565b7f4e487b7100000000000000000000000000000000000000000000000000000000600052602260045260246000fd5b60006002820490506001821680610d0957607f821691505b602082108103610d1c57610d1b610cc2565b5b50919050565b7f41696420616c72656164792064697374726962757465642e0000000000000000600082015250565b6000610d58601883610860565b9150610d6382610d22565b602082019050919050565b60006020820190508181036000830152610d8781610d4b565b9050919050565b6000606082019050610da36000830186610846565b610db06020830185610917565b610dbd6040830184610846565b949350505050565b60008190508160005260206000209050919050565b60006020601f8301049050919050565b600082821b905092915050565b600060088302610e277fffffffffffffffffffffffffffffffffffffffffffffffffffffffffffffffff82610dea565b610e318683610dea565b95508019841693508086168417925050509392505050565b6000819050919050565b6000610e6e610e69610e64846107e3565b610e49565b6107e3565b9050919050565b6000819050919050565b610e8883610e53565b610e9c610e9482610e75565b848454610df7565b825550505050565b600090565b610eb1610ea4565b610ebc818484610e7f565b505050565b5b81811015610ee057610ed5600082610ea9565b600181019050610ec2565b5050565b601f821115610f2557610ef681610dc5565b610eff84610dda565b81016020851015610f0e578190505b610f22610f1a85610dda565b830182610ec1565b50505b505050565b600082821c905092915050565b6000610f4860001984600802610f2a565b1980831691505092915050565b6000610f618383610f37565b9150826002028217905092915050565b610f7a82610855565b67ffffffffffffffff811115610f9357610f926109a5565b5b610f9d8254610cf1565b610fa8828285610ee4565b600060209050601f831160018114610fdb5760008415610fc9578287015190505b610fd38582610f55565b86555061103b565b601f198416610fe986610dc5565b60005b8281101561101157848901518255600182019150602085019450602081019050610fec565b8683101561102e578489015161102a601f891682610f37565b8355505b6001600288020188555050505b505050505050565b7f4e487b7100000000000000000000000000000000000000000000000000000000600052601160045260246000fd5b600061107d826107e3565b91507fffffffffffffffffffffffffffffffffffffffffffffffffffffffffffffffff82036110af576110ae611043565b5b600182019050919050565b7f446f6e6174696f6e206d7573742062652067726561746572207468616e207a6560008201527f726f000000000000000000000000000000000000000000000000000000000000602082015250565b6000611116602283610860565b9150611121826110ba565b604082019050919050565b6000602082019050818103600083015261114581611109565b9050919050565b6000611157826107e3565b9150611162836107e3565b925082820190508082111561117a57611179611043565b5b92915050565b60006040820190506111956000830185610917565b6111a26020830184610846565b939250505056fea26469706673582212203cf8cd4704d1784f1641ac0b37b845b1c8405a0d28ff070e9fd9d8be3150cb0664736f6c634300081c0033",
  "linkReferences": {},
  "deployedLinkReferences": {}
}