{
  "_format": "hh-sol-artifact-1",
  "contractName": "AidContract",
  "sourceName": "contracts/AidContract.sol",
  "abi": [
    {
      "inputs": [],
      "stateMutability": "nonpayable",
      "type": "constructor"
    },
    {
      "anonymous": false,
      "inputs": [
        {
          "indexed": false,
          "internalType": "uint256",
          "name": "id",
          "type": "uint256"
        },
        {
          "indexed": false,
          "internalType": "string",
          "name": "recipient",
          "type": "string"
        },
        {
          "indexed": false,
          "internalType": "string",
          "name": "aidType",
          "type": "string"
        },
        {
          "indexed": false,
          "internalType": "uint256",
          "name": "amount",
          "type": "uint256"
        },
        {
          "indexed": false,
          "internalType": "string",
          "name": "status",
          "type": "string"
        },
        {
          "indexed": false,
          "internalType": "address",
          "name": "addedBy",
          "type": "address"
        }
      ],
      "name": "AidAdded",
      "type": "event"
    },
    {
      "anonymous": false,
      "inputs": [
        {
          "indexed": true,
          "internalType": "address",
          "name": "recipient",
          "type": "address"
        },
        {
          "indexed": false,
          "internalType": "string",
          "name": "aidType",
          "type": "string"
        },
        {
          "indexed": false,
          "internalType": "uint256",
          "name": "amount",
          "type": "uint256"
        },
        {
          "indexed": false,
          "internalType": "uint256",
          "name": "timestamp",
          "type": "uint256"
        }
      ],
      "name": "AidDistributed",
      "type": "event"
    },
    {
      "anonymous": false,
      "inputs": [
        {
          "indexed": false,
          "internalType": "uint256",
          "name": "id",
          "type": "uint256"
        },
        {
          "indexed": false,
          "internalType": "string",
          "name": "status",
          "type": "string"
        }
      ],
      "name": "AidUpdated",
      "type": "event"
    },
    {
      "anonymous": false,
      "inputs": [
        {
          "indexed": true,
          "internalType": "address",
          "name": "donor",
          "type": "address"
        },
        {
          "indexed": false,
          "internalType": "string",
          "name": "name",
          "type": "string"
        },
        {
          "indexed": false,
          "internalType": "uint256",
          "name": "amount",
          "type": "uint256"
        }
      ],
      "name": "DonationReceived",
      "type": "event"
    },
    {
      "inputs": [
        {
          "internalType": "string",
          "name": "_recipient",
          "type": "string"
        },
        {
          "internalType": "string",
          "name": "_aidType",
          "type": "string"
        },
        {
          "internalType": "uint256",
          "name": "_amount",
          "type": "uint256"
        }
      ],
      "name": "addAidRecord",
      "outputs": [],
      "stateMutability": "nonpayable",
      "type": "function"
    },
    {
      "inputs": [],
      "name": "admin",
      "outputs": [
        {
          "internalType": "address",
          "name": "",
          "type": "address"
        }
      ],
      "stateMutability": "view",
      "type": "function"
    },
    {
      "inputs": [
        {
          "internalType": "uint256",
          "name": "",
          "type": "uint256"
        }
      ],
      "name": "aidRecords",
      "outputs": [
        {
          "internalType": "uint256",
          "name": "id",
          "type": "uint256"
        },
        {
          "internalType": "string",
          "name": "recipient",
          "type": "string"
        },
        {
          "internalType": "string",
          "name": "aidType",
          "type": "string"
        },
        {
          "internalType": "uint256",
          "name": "amount",
          "type": "uint256"
        },
        {
          "internalType": "string",
          "name": "status",
          "type": "string"
        },
        {
          "internalType": "address",
          "name": "addedBy",
          "type": "address"
        },
        {
          "internalType": "uint256",
          "name": "timestamp",
          "type": "uint256"
        }
      ],
      "stateMutability": "view",
      "type": "function"
    },
    {
      "inputs": [
        {
          "internalType": "string",
          "name": "_name",
          "type": "string"
        },
        {
          "internalType": "uint256",
          "name": "_amount",
          "type": "uint256"
        }
      ],
      "name": "donate",
      "outputs": [],
      "stateMutability": "nonpayable",
      "type": "function"
    },
    {
      "inputs": [
        {
          "internalType": "address",
          "name": "",
          "type": "address"
        }
      ],
      "name": "donors",
      "outputs": [
        {
          "internalType": "string",
          "name": "name",
          "type": "string"
        },
        {
          "internalType": "uint256",
          "name": "totalDonated",
          "type": "uint256"
        }
      ],
      "stateMutability": "view",
      "type": "function"
    },
    {
      "inputs": [
        {
          "internalType": "uint256",
          "name": "_id",
          "type": "uint256"
        }
      ],
      "name": "getAidRecord",
      "outputs": [
        {
          "internalType": "uint256",
          "name": "",
          "type": "uint256"
        },
        {
          "internalType": "string",
          "name": "",
          "type": "string"
        },
        {
          "internalType": "string",
          "name": "",
          "type": "string"
        },
        {
          "internalType": "uint256",
          "name": "",
          "type": "uint256"
        },
        {
          "internalType": "string",
          "name": "",
          "type": "string"
        },
        {
          "internalType": "address",
          "name": "",
          "type": "address"
        },
        {
          "internalType": "uint256",
          "name": "",
          "type": "uint256"
        }
      ],
      "stateMutability": "view",
      "type": "function"
    },
    {
      "inputs": [],
      "name": "getAllAidRecords",
      "outputs": [
        {
          "components": [
            {
              "internalType": "uint256",
              "name": "id",
              "type": "uint256"
            },
            {
              "internalType": "string",
              "name": "recipient",
              "type": "string"
            },
            {
              "internalType": "string",
              "name": "aidType",
              "type": "string"
            },
            {
              "internalType": "uint256",
              "name": "amount",
              "type": "uint256"
            },
            {
              "internalType": "string",
              "name": "status",
              "type": "string"
            },
            {
              "internalType": "address",
              "name": "addedBy",
              "type": "address"
            },
            {
              "internalType": "uint256",
              "name": "timestamp",
              "type": "uint256"
            }
          ],
          "internalType": "struct AidContract.AidRecord[]",
          "name": "",
          "type": "tuple[]"
        }
      ],
      "stateMutability": "view",
      "type": "function"
    },
    {
      "inputs": [
        {
          "internalType": "address",
          "name": "_donor",
          "type": "address"
        }
      ],
      "name": "getDonorDetails",
      "outputs": [
        {
          "internalType": "string",
          "name": "",
          "type": "string"
        },
        {
          "internalType": "uint256",
          "name": "",
          "type": "uint256"
        }
      ],
      "stateMutability": "view",
      "type": "function"
    },
    {
      "inputs": [],
      "name": "recordCount",
      "outputs": [
        {
          "internalType": "uint256",
          "name": "",
          "type": "uint256"
        }
      ],
      "stateMutability": "view",
      "type": "function"
    },
    {
      "inputs": [
        {
          "internalType": "uint256",
          "name": "_id",
          "type": "uint256"
        },
        {
          "internalType": "string",
          "name": "_status",
          "type": "string"
        }
      ],
      "name": "updateAidStatus",
      "outputs": [],
      "stateMutability": "nonpayable",
      "type": "function"
    }
  ],
  "bytecode": "0x6080604052348015600f57600080fd5b5033600360006101000a81548173ffffffffffffffffffffffffffffffffffffffff021916908373ffffffffffffffffffffffffffffffffffffffff160217905550612013806100606000396000f3fe608060405234801561001057600080fd5b506004361061009e5760003560e01c80639bb781c6116100665780639bb781c614610167578063afcb67d314610183578063ca0cdea8146101b4578063efb21c59146101e5578063f851a440146102015761009e565b80631468edea146100a3578063189d41b7146100c1578063331e2978146100f75780637f0821d614610113578063900407bc14610149575b600080fd5b6100ab61021f565b6040516100b89190611415565b60405180910390f35b6100db60048036038101906100d69190611477565b610517565b6040516100ee979695949392919061150c565b60405180910390f35b610111600480360381019061010c91906116c5565b610711565b005b61012d60048036038101906101289190611477565b610859565b604051610140979695949392919061150c565b60405180910390f35b610151610ad1565b60405161015e9190611721565b60405180910390f35b610181600480360381019061017c919061173c565b610ad7565b005b61019d600480360381019061019891906117f3565b610d55565b6040516101ab929190611820565b60405180910390f35b6101ce60048036038101906101c991906117f3565b610f03565b6040516101dc929190611820565b60405180910390f35b6101ff60048036038101906101fa9190611850565b610faf565b005b610209611146565b60405161021691906118ac565b60405180910390f35b6060600060025467ffffffffffffffff81111561023f5761023e61159a565b5b60405190808252806020026020018201604052801561027857816020015b61026561116c565b81526020019060019003908161025d5790505b5090506000600190505b600254811161050f576000808281526020019081526020016000206040518060e0016040529081600082015481526020016001820180546102c2906118f6565b80601f01602080910402602001604051908101604052809291908181526020018280546102ee906118f6565b801561033b5780601f106103105761010080835404028352916020019161033b565b820191906000526020600020905b81548152906001019060200180831161031e57829003601f168201915b50505050508152602001600282018054610354906118f6565b80601f0160208091040260200160405190810160405280929190818152602001828054610380906118f6565b80156103cd5780601f106103a2576101008083540402835291602001916103cd565b820191906000526020600020905b8154815290600101906020018083116103b057829003601f168201915b50505050508152602001600382015481526020016004820180546103f0906118f6565b80601f016020809104026020016040519081016040528092919081815260200182805461041c906118f6565b80156104695780601f1061043e57610100808354040283529160200191610469565b820191906000526020600020905b81548152906001019060200180831161044c57829003601f168201915b505050505081526020016005820160009054906101000a900473ffffffffffffffffffffffffffffffffffffffff1673ffffffffffffffffffffffffffffffffffffffff1673ffffffffffffffffffffffffffffffffffffffff168152602001600682015481525050826001836104e09190611956565b815181106104f1576104f061198a565b5b60200260200101819052508080610507906119b9565b915050610282565b508091505090565b6000602052806000526040600020600091509050806000015490806001018054610540906118f6565b80601f016020809104026020016040519081016040528092919081815260200182805461056c906118f6565b80156105b95780601f1061058e576101008083540402835291602001916105b9565b820191906000526020600020905b81548152906001019060200180831161059c57829003601f168201915b5050505050908060020180546105ce906118f6565b80601f01602080910402602001604051908101604052809291908181526020018280546105fa906118f6565b80156106475780601f1061061c57610100808354040283529160200191610647565b820191906000526020600020905b81548152906001019060200180831161062a57829003601f168201915b505050505090806003015490806004018054610662906118f6565b80601f016020809104026020016040519081016040528092919081815260200182805461068e906118f6565b80156106db5780601f106106b0576101008083540402835291602001916106db565b820191906000526020600020905b8154815290600101906020018083116106be57829003601f168201915b5050505050908060050160009054906101000a900473ffffffffffffffffffffffffffffffffffffffff16908060060154905087565b600360009054906101000a900473ffffffffffffffffffffffffffffffffffffffff1673ffffffffffffffffffffffffffffffffffffffff163373ffffffffffffffffffffffffffffffffffffffff16146107a1576040517f08c379a000000000000000000000000000000000000000000000000000000000815260040161079890611a73565b60405180910390fd5b600080600084815260200190815260200160002060000154036107f9576040517f08c379a00000000000000000000000000000000000000000000000000000000081526004016107f090611adf565b60405180910390fd5b80600080848152602001908152602001600020600401908161081b9190611cab565b507f5b24f2eb6f4ee88e3e7fa4a1a8483c03ac2de724517e48ca3096c118cbc3d138828260405161084d929190611d7d565b60405180910390a15050565b60006060806000606060008060008060008a815260200190815260200160002060000154036108bd576040517f08c379a00000000000000000000000000000000000000000000000000000000081526004016108b490611adf565b60405180910390fd5b60008060008a81526020019081526020016000209050806000015481600101826002018360030154846004018560050160009054906101000a900473ffffffffffffffffffffffffffffffffffffffff16866006015485805461091f906118f6565b80601f016020809104026020016040519081016040528092919081815260200182805461094b906118f6565b80156109985780601f1061096d57610100808354040283529160200191610998565b820191906000526020600020905b81548152906001019060200180831161097b57829003601f168201915b505050505095508480546109ab906118f6565b80601f01602080910402602001604051908101604052809291908181526020018280546109d7906118f6565b8015610a245780601f106109f957610100808354040283529160200191610a24565b820191906000526020600020905b815481529060010190602001808311610a0757829003601f168201915b50505050509450828054610a37906118f6565b80601f0160208091040260200160405190810160405280929190818152602001828054610a63906118f6565b8015610ab05780601f10610a8557610100808354040283529160200191610ab0565b820191906000526020600020905b815481529060010190602001808311610a9357829003601f168201915b50505050509250975097509750975097509750975050919395979092949650565b60025481565b600360009054906101000a900473ffffffffffffffffffffffffffffffffffffffff1673ffffffffffffffffffffffffffffffffffffffff163373ffffffffffffffffffffffffffffffffffffffff1614610b67576040517f08c379a0000000000000000000000000000000000000000000000000000000008152600401610b5e90611a73565b60405180910390fd5b60026000815480929190610b7a906119b9565b91905055506040518060e0016040528060025481526020018481526020018381526020018281526020016040518060400160405280600781526020017f50656e64696e670000000000000000000000000000000000000000000000000081525081526020013373ffffffffffffffffffffffffffffffffffffffff168152602001428152506000806002548152602001908152602001600020600082015181600001556020820151816001019081610c329190611cab565b506040820151816002019081610c489190611cab565b50606082015181600301556080820151816004019081610c689190611cab565b5060a08201518160050160006101000a81548173ffffffffffffffffffffffffffffffffffffffff021916908373ffffffffffffffffffffffffffffffffffffffff16021790555060c082015181600601559050507fef5dcbf81bc2d0b2ebb4b638967e73e797017be6bb6cfe33ba32b5ee30fa927e60025484848433604051610cf6959493929190611df9565b60405180910390a13373ffffffffffffffffffffffffffffffffffffffff167f7761c1d73ed4742baf4f4ff96fc7e12a36543061729282e36a5334f515026f87838342604051610d4893929190611e6d565b60405180910390a2505050565b6060600080600160008573ffffffffffffffffffffffffffffffffffffffff1673ffffffffffffffffffffffffffffffffffffffff1681526020019081526020016000206000018054610da7906118f6565b905011610de9576040517f08c379a0000000000000000000000000000000000000000000000000000000008152600401610de090611ef7565b60405180910390fd5b600160008473ffffffffffffffffffffffffffffffffffffffff1673ffffffffffffffffffffffffffffffffffffffff168152602001908152602001600020600001600160008573ffffffffffffffffffffffffffffffffffffffff1673ffffffffffffffffffffffffffffffffffffffff16815260200190815260200160002060010154818054610e7a906118f6565b80601f0160208091040260200160405190810160405280929190818152602001828054610ea6906118f6565b8015610ef35780601f10610ec857610100808354040283529160200191610ef3565b820191906000526020600020905b815481529060010190602001808311610ed657829003601f168201915b5050505050915091509150915091565b6001602052806000526040600020600091509050806000018054610f26906118f6565b80601f0160208091040260200160405190810160405280929190818152602001828054610f52906118f6565b8015610f9f5780601f10610f7457610100808354040283529160200191610f9f565b820191906000526020600020905b815481529060010190602001808311610f8257829003601f168201915b5050505050908060010154905082565b60008111610ff2576040517f08c379a0000000000000000000000000000000000000000000000000000000008152600401610fe990611f89565b60405180910390fd5b80600160003373ffffffffffffffffffffffffffffffffffffffff1673ffffffffffffffffffffffffffffffffffffffff16815260200190815260200160002060010160008282546110449190611fa9565b925050819055506000600160003373ffffffffffffffffffffffffffffffffffffffff1673ffffffffffffffffffffffffffffffffffffffff168152602001908152602001600020600001805461109a906118f6565b9050036110f25781600160003373ffffffffffffffffffffffffffffffffffffffff1673ffffffffffffffffffffffffffffffffffffffff16815260200190815260200160002060000190816110f09190611cab565b505b3373ffffffffffffffffffffffffffffffffffffffff167f91a631485fcb697827429988737671b22367c3f76633aed1ed4193b7a52590ab838360405161113a929190611820565b60405180910390a25050565b600360009054906101000a900473ffffffffffffffffffffffffffffffffffffffff1681565b6040518060e001604052806000815260200160608152602001606081526020016000815260200160608152602001600073ffffffffffffffffffffffffffffffffffffffff168152602001600081525090565b600081519050919050565b600082825260208201905092915050565b6000819050602082019050919050565b6000819050919050565b6111fe816111eb565b82525050565b600081519050919050565b600082825260208201905092915050565b60005b8381101561123e578082015181840152602081019050611223565b60008484015250505050565b6000601f19601f8301169050919050565b600061126682611204565b611270818561120f565b9350611280818560208601611220565b6112898161124a565b840191505092915050565b600073ffffffffffffffffffffffffffffffffffffffff82169050919050565b60006112bf82611294565b9050919050565b6112cf816112b4565b82525050565b600060e0830160008301516112ed60008601826111f5565b5060208301518482036020860152611305828261125b565b9150506040830151848203604086015261131f828261125b565b915050606083015161133460608601826111f5565b506080830151848203608086015261134c828261125b565b91505060a083015161136160a08601826112c6565b5060c083015161137460c08601826111f5565b508091505092915050565b600061138b83836112d5565b905092915050565b6000602082019050919050565b60006113ab826111bf565b6113b581856111ca565b9350836020820285016113c7856111db565b8060005b8581101561140357848403895281516113e4858261137f565b94506113ef83611393565b925060208a019950506001810190506113cb565b50829750879550505050505092915050565b6000602082019050818103600083015261142f81846113a0565b905092915050565b6000604051905090565b600080fd5b600080fd5b611454816111eb565b811461145f57600080fd5b50565b6000813590506114718161144b565b92915050565b60006020828403121561148d5761148c611441565b5b600061149b84828501611462565b91505092915050565b6114ad816111eb565b82525050565b600082825260208201905092915050565b60006114cf82611204565b6114d981856114b3565b93506114e9818560208601611220565b6114f28161124a565b840191505092915050565b611506816112b4565b82525050565b600060e082019050611521600083018a6114a4565b818103602083015261153381896114c4565b9050818103604083015261154781886114c4565b905061155660608301876114a4565b818103608083015261156881866114c4565b905061157760a08301856114fd565b61158460c08301846114a4565b98975050505050505050565b600080fd5b600080fd5b7f4e487b7100000000000000000000000000000000000000000000000000000000600052604160045260246000fd5b6115d28261124a565b810181811067ffffffffffffffff821117156115f1576115f061159a565b5b80604052505050565b6000611604611437565b905061161082826115c9565b919050565b600067ffffffffffffffff8211156116305761162f61159a565b5b6116398261124a565b9050602081019050919050565b82818337600083830152505050565b600061166861166384611615565b6115fa565b90508281526020810184848401111561168457611683611595565b5b61168f848285611646565b509392505050565b600082601f8301126116ac576116ab611590565b5b81356116bc848260208601611655565b91505092915050565b600080604083850312156116dc576116db611441565b5b60006116ea85828601611462565b925050602083013567ffffffffffffffff81111561170b5761170a611446565b5b61171785828601611697565b9150509250929050565b600060208201905061173660008301846114a4565b92915050565b60008060006060848603121561175557611754611441565b5b600084013567ffffffffffffffff81111561177357611772611446565b5b61177f86828701611697565b935050602084013567ffffffffffffffff8111156117a05761179f611446565b5b6117ac86828701611697565b92505060406117bd86828701611462565b9150509250925092565b6117d0816112b4565b81146117db57600080fd5b50565b6000813590506117ed816117c7565b92915050565b60006020828403121561180957611808611441565b5b6000611817848285016117de565b91505092915050565b6000604082019050818103600083015261183a81856114c4565b905061184960208301846114a4565b9392505050565b6000806040838503121561186757611866611441565b5b600083013567ffffffffffffffff81111561188557611884611446565b5b61189185828601611697565b92505060206118a285828601611462565b9150509250929050565b60006020820190506118c160008301846114fd565b92915050565b7f4e487b7100000000000000000000000000000000000000000000000000000000600052602260045260246000fd5b6000600282049050600182168061190e57607f821691505b602082108103611921576119206118c7565b5b50919050565b7f4e487b7100000000000000000000000000000000000000000000000000000000600052601160045260246000fd5b6000611961826111eb565b915061196c836111eb565b925082820390508181111561198457611983611927565b5b92915050565b7f4e487b7100000000000000000000000000000000000000000000000000000000600052603260045260246000fd5b60006119c4826111eb565b91507fffffffffffffffffffffffffffffffffffffffffffffffffffffffffffffffff82036119f6576119f5611927565b5b600182019050919050565b7f4f6e6c792061646d696e2063616e20706572666f726d2074686973206163746960008201527f6f6e000000000000000000000000000000000000000000000000000000000000602082015250565b6000611a5d6022836114b3565b9150611a6882611a01565b604082019050919050565b60006020820190508181036000830152611a8c81611a50565b9050919050565b7f5265636f7264206e6f7420666f756e6400000000000000000000000000000000600082015250565b6000611ac96010836114b3565b9150611ad482611a93565b602082019050919050565b60006020820190508181036000830152611af881611abc565b9050919050565b60008190508160005260206000209050919050565b60006020601f8301049050919050565b600082821b905092915050565b600060088302611b617fffffffffffffffffffffffffffffffffffffffffffffffffffffffffffffffff82611b24565b611b6b8683611b24565b95508019841693508086168417925050509392505050565b6000819050919050565b6000611ba8611ba3611b9e846111eb565b611b83565b6111eb565b9050919050565b6000819050919050565b611bc283611b8d565b611bd6611bce82611baf565b848454611b31565b825550505050565b600090565b611beb611bde565b611bf6818484611bb9565b505050565b5b81811015611c1a57611c0f600082611be3565b600181019050611bfc565b5050565b601f821115611c5f57611c3081611aff565b611c3984611b14565b81016020851015611c48578190505b611c5c611c5485611b14565b830182611bfb565b50505b505050565b600082821c905092915050565b6000611c8260001984600802611c64565b1980831691505092915050565b6000611c9b8383611c71565b9150826002028217905092915050565b611cb482611204565b67ffffffffffffffff811115611ccd57611ccc61159a565b5b611cd782546118f6565b611ce2828285611c1e565b600060209050601f831160018114611d155760008415611d03578287015190505b611d0d8582611c8f565b865550611d75565b601f198416611d2386611aff565b60005b82811015611d4b57848901518255600182019150602085019450602081019050611d26565b86831015611d685784890151611d64601f891682611c71565b8355505b6001600288020188555050505b505050505050565b6000604082019050611d9260008301856114a4565b8181036020830152611da481846114c4565b90509392505050565b7f50656e64696e6700000000000000000000000000000000000000000000000000600082015250565b6000611de36007836114b3565b9150611dee82611dad565b602082019050919050565b600060c082019050611e0e60008301886114a4565b8181036020830152611e2081876114c4565b90508181036040830152611e3481866114c4565b9050611e4360608301856114a4565b8181036080830152611e5481611dd6565b9050611e6360a08301846114fd565b9695505050505050565b60006060820190508181036000830152611e8781866114c4565b9050611e9660208301856114a4565b611ea360408301846114a4565b949350505050565b7f446f6e6f72206e6f7420666f756e640000000000000000000000000000000000600082015250565b6000611ee1600f836114b3565b9150611eec82611eab565b602082019050919050565b60006020820190508181036000830152611f1081611ed4565b9050919050565b7f446f6e6174696f6e20616d6f756e74206d75737420626520677265617465722060008201527f7468616e207a65726f0000000000000000000000000000000000000000000000602082015250565b6000611f736029836114b3565b9150611f7e82611f17565b604082019050919050565b60006020820190508181036000830152611fa281611f66565b9050919050565b6000611fb4826111eb565b9150611fbf836111eb565b9250828201905080821115611fd757611fd6611927565b5b9291505056fea2646970667358221220648fc51e5ac13b250e8fb896ba046c7e3df2257b16814a12599190799b1d6d8f64736f6c634300081c0033",
  "linkReferences": {},
  "deployedLinkReferences": {}
}