{
  "_format": "hh-sol-artifact-1",
  "contractName": "RefugeeAccess",
  "sourceName": "contracts/RefugeeAccess.sol",
  "abi": [
    {
      "anonymous": false,
      "inputs": [
        {
          "indexed": false,
          "internalType": "address",
          "name": "refugee",
          "type": "address"
        },
        {
          "indexed": false,
          "internalType": "bool",
          "name": "isEligibleForAid",
          "type": "bool"
        }
      ],
      "name": "RefugeeStatusUpdated",
      "type": "event"
    },
    {
      "inputs": [
        {
          "internalType": "address",
          "name": "refugeeAddress",
          "type": "address"
        }
      ],
      "name": "getRefugeeDetails",
      "outputs": [
        {
          "components": [
            {
              "internalType": "address",
              "name": "refugeeAddress",
              "type": "address"
            },
            {
              "internalType": "string",
              "name": "name",
              "type": "string"
            },
            {
              "internalType": "bool",
              "name": "isEligibleForAid",
              "type": "bool"
            }
          ],
          "internalType": "struct RefugeeAccess.Refugee",
          "name": "",
          "type": "tuple"
        }
      ],
      "stateMutability": "view",
      "type": "function"
    },
    {
      "inputs": [
        {
          "internalType": "address",
          "name": "",
          "type": "address"
        }
      ],
      "name": "refugees",
      "outputs": [
        {
          "internalType": "address",
          "name": "refugeeAddress",
          "type": "address"
        },
        {
          "internalType": "string",
          "name": "name",
          "type": "string"
        },
        {
          "internalType": "bool",
          "name": "isEligibleForAid",
          "type": "bool"
        }
      ],
      "stateMutability": "view",
      "type": "function"
    },
    {
      "inputs": [
        {
          "internalType": "address",
          "name": "refugeeAddress",
          "type": "address"
        },
        {
          "internalType": "string",
          "name": "name",
          "type": "string"
        }
      ],
      "name": "registerRefugee",
      "outputs": [],
      "stateMutability": "nonpayable",
      "type": "function"
    },
    {
      "inputs": [
        {
          "internalType": "address",
          "name": "refugeeAddress",
          "type": "address"
        },
        {
          "internalType": "bool",
          "name": "eligibility",
          "type": "bool"
        }
      ],
      "name": "updateEligibility",
      "outputs": [],
      "stateMutability": "nonpayable",
      "type": "function"
    }
  ],
  "bytecode": "0x6080604052348015600f57600080fd5b50610cd98061001f6000396000f3fe608060405234801561001057600080fd5b506004361061004c5760003560e01c8063052ab11c146100515780630c295f121461006d578063cd601d9f14610089578063cd7b775c146100b9575b600080fd5b61006b600480360381019061006691906105ce565b6100eb565b005b61008760048036038101906100829190610754565b610181565b005b6100a3600480360381019061009e91906107b0565b6102b1565b6040516100b091906108ca565b60405180910390f35b6100d360048036038101906100ce91906107b0565b61040c565b6040516100e293929190610954565b60405180910390f35b806000808473ffffffffffffffffffffffffffffffffffffffff1673ffffffffffffffffffffffffffffffffffffffff16815260200190815260200160002060020160006101000a81548160ff0219169083151502179055507f01e54dde7e8842b77773f60708ffe31b615def5c88722e343b7a6d88765c1d808282604051610175929190610992565b60405180910390a15050565b60405180606001604052808373ffffffffffffffffffffffffffffffffffffffff168152602001828152602001600115158152506000808473ffffffffffffffffffffffffffffffffffffffff1673ffffffffffffffffffffffffffffffffffffffff16815260200190815260200160002060008201518160000160006101000a81548173ffffffffffffffffffffffffffffffffffffffff021916908373ffffffffffffffffffffffffffffffffffffffff160217905550602082015181600101908161024f9190610bd1565b5060408201518160020160006101000a81548160ff0219169083151502179055509050507f01e54dde7e8842b77773f60708ffe31b615def5c88722e343b7a6d88765c1d808260016040516102a5929190610992565b60405180910390a15050565b6102b96104eb565b6000808373ffffffffffffffffffffffffffffffffffffffff1673ffffffffffffffffffffffffffffffffffffffff1681526020019081526020016000206040518060600160405290816000820160009054906101000a900473ffffffffffffffffffffffffffffffffffffffff1673ffffffffffffffffffffffffffffffffffffffff1673ffffffffffffffffffffffffffffffffffffffff168152602001600182018054610368906109ea565b80601f0160208091040260200160405190810160405280929190818152602001828054610394906109ea565b80156103e15780601f106103b6576101008083540402835291602001916103e1565b820191906000526020600020905b8154815290600101906020018083116103c457829003601f168201915b505050505081526020016002820160009054906101000a900460ff1615151515815250509050919050565b60006020528060005260406000206000915090508060000160009054906101000a900473ffffffffffffffffffffffffffffffffffffffff1690806001018054610455906109ea565b80601f0160208091040260200160405190810160405280929190818152602001828054610481906109ea565b80156104ce5780601f106104a3576101008083540402835291602001916104ce565b820191906000526020600020905b8154815290600101906020018083116104b157829003601f168201915b5050505050908060020160009054906101000a900460ff16905083565b6040518060600160405280600073ffffffffffffffffffffffffffffffffffffffff168152602001606081526020016000151581525090565b6000604051905090565b600080fd5b600080fd5b600073ffffffffffffffffffffffffffffffffffffffff82169050919050565b600061056382610538565b9050919050565b61057381610558565b811461057e57600080fd5b50565b6000813590506105908161056a565b92915050565b60008115159050919050565b6105ab81610596565b81146105b657600080fd5b50565b6000813590506105c8816105a2565b92915050565b600080604083850312156105e5576105e461052e565b5b60006105f385828601610581565b9250506020610604858286016105b9565b9150509250929050565b600080fd5b600080fd5b6000601f19601f8301169050919050565b7f4e487b7100000000000000000000000000000000000000000000000000000000600052604160045260246000fd5b61066182610618565b810181811067ffffffffffffffff821117156106805761067f610629565b5b80604052505050565b6000610693610524565b905061069f8282610658565b919050565b600067ffffffffffffffff8211156106bf576106be610629565b5b6106c882610618565b9050602081019050919050565b82818337600083830152505050565b60006106f76106f2846106a4565b610689565b90508281526020810184848401111561071357610712610613565b5b61071e8482856106d5565b509392505050565b600082601f83011261073b5761073a61060e565b5b813561074b8482602086016106e4565b91505092915050565b6000806040838503121561076b5761076a61052e565b5b600061077985828601610581565b925050602083013567ffffffffffffffff81111561079a57610799610533565b5b6107a685828601610726565b9150509250929050565b6000602082840312156107c6576107c561052e565b5b60006107d484828501610581565b91505092915050565b6107e681610558565b82525050565b600081519050919050565b600082825260208201905092915050565b60005b8381101561082657808201518184015260208101905061080b565b60008484015250505050565b600061083d826107ec565b61084781856107f7565b9350610857818560208601610808565b61086081610618565b840191505092915050565b61087481610596565b82525050565b600060608301600083015161089260008601826107dd565b50602083015184820360208601526108aa8282610832565b91505060408301516108bf604086018261086b565b508091505092915050565b600060208201905081810360008301526108e4818461087a565b905092915050565b6108f581610558565b82525050565b600082825260208201905092915050565b6000610917826107ec565b61092181856108fb565b9350610931818560208601610808565b61093a81610618565b840191505092915050565b61094e81610596565b82525050565b600060608201905061096960008301866108ec565b818103602083015261097b818561090c565b905061098a6040830184610945565b949350505050565b60006040820190506109a760008301856108ec565b6109b46020830184610945565b9392505050565b7f4e487b7100000000000000000000000000000000000000000000000000000000600052602260045260246000fd5b60006002820490506001821680610a0257607f821691505b602082108103610a1557610a146109bb565b5b50919050565b60008190508160005260206000209050919050565b60006020601f8301049050919050565b600082821b905092915050565b600060088302610a7d7fffffffffffffffffffffffffffffffffffffffffffffffffffffffffffffffff82610a40565b610a878683610a40565b95508019841693508086168417925050509392505050565b6000819050919050565b6000819050919050565b6000610ace610ac9610ac484610a9f565b610aa9565b610a9f565b9050919050565b6000819050919050565b610ae883610ab3565b610afc610af482610ad5565b848454610a4d565b825550505050565b600090565b610b11610b04565b610b1c818484610adf565b505050565b5b81811015610b4057610b35600082610b09565b600181019050610b22565b5050565b601f821115610b8557610b5681610a1b565b610b5f84610a30565b81016020851015610b6e578190505b610b82610b7a85610a30565b830182610b21565b50505b505050565b600082821c905092915050565b6000610ba860001984600802610b8a565b1980831691505092915050565b6000610bc18383610b97565b9150826002028217905092915050565b610bda826107ec565b67ffffffffffffffff811115610bf357610bf2610629565b5b610bfd82546109ea565b610c08828285610b44565b600060209050601f831160018114610c3b5760008415610c29578287015190505b610c338582610bb5565b865550610c9b565b601f198416610c4986610a1b565b60005b82811015610c7157848901518255600182019150602085019450602081019050610c4c565b86831015610c8e5784890151610c8a601f891682610b97565b8355505b6001600288020188555050505b50505050505056fea2646970667358221220214dfc36ed407702379aeeec566f30bdfbbf2f581074897fd8ab0ceb8f00c74564736f6c634300081c0033",
  "linkReferences": {},
  "deployedLinkReferences": {}
}